{
  "abi": [
    {
      "inputs": [
        {
          "internalType": "address",
          "name": "token",
          "type": "address"
        },
        {
          "internalType": "address",
          "name": "oracle",
          "type": "address"
        }
      ],
      "stateMutability": "nonpayable",
      "type": "constructor"
    },
    {
      "anonymous": false,
      "inputs": [
        {
          "indexed": false,
          "internalType": "address",
          "name": "borrowerAddr",
          "type": "address"
        },
        {
          "indexed": false,
          "internalType": "uint256",
          "name": "ethAmount",
          "type": "uint256"
        },
        {
          "indexed": false,
          "internalType": "uint256",
          "name": "time",
          "type": "uint256"
        },
        {
          "indexed": false,
          "internalType": "uint256",
          "name": "borrowableAmount",
          "type": "uint256"
        },
        {
          "indexed": false,
          "internalType": "uint256",
          "name": "threshold",
          "type": "uint256"
        },
        {
          "indexed": false,
          "internalType": "uint256",
          "name": "borrowedAmount",
          "type": "uint256"
        }
      ],
      "name": "BorrowerInfo",
      "type": "event"
    },
    {
      "anonymous": false,
      "inputs": [
        {
          "indexed": false,
          "internalType": "address",
          "name": "from",
          "type": "address"
        },
        {
          "indexed": false,
          "internalType": "uint256",
          "name": "amount",
          "type": "uint256"
        }
      ],
      "name": "DepositETHER",
      "type": "event"
    },
    {
      "anonymous": false,
      "inputs": [
        {
          "indexed": false,
          "internalType": "address",
          "name": "from",
          "type": "address"
        },
        {
          "indexed": false,
          "internalType": "uint256",
          "name": "amount",
          "type": "uint256"
        }
      ],
      "name": "DepositUSDC",
      "type": "event"
    },
    {
      "anonymous": false,
      "inputs": [
        {
          "indexed": false,
          "internalType": "address",
          "name": "depositorAddr",
          "type": "address"
        },
        {
          "indexed": false,
          "internalType": "uint256",
          "name": "usdcAmount",
          "type": "uint256"
        },
        {
          "indexed": false,
          "internalType": "uint256",
          "name": "time",
          "type": "uint256"
        }
      ],
      "name": "DepositorInfo",
      "type": "event"
    },
    {
      "inputs": [
        {
          "internalType": "address",
          "name": "tokenAddress",
          "type": "address"
        },
        {
          "internalType": "uint256",
          "name": "amount",
          "type": "uint256"
        }
      ],
      "name": "borrow",
      "outputs": [],
      "stateMutability": "nonpayable",
      "type": "function"
    },
    {
      "inputs": [
        {
          "internalType": "address",
          "name": "",
          "type": "address"
        }
      ],
      "name": "borrowers",
      "outputs": [
        {
          "internalType": "uint256",
          "name": "ethAmount",
          "type": "uint256"
        },
        {
          "internalType": "uint256",
          "name": "time",
          "type": "uint256"
        },
        {
          "internalType": "uint256",
          "name": "borrowableAmount",
          "type": "uint256"
        },
        {
          "internalType": "uint256",
          "name": "thresholdAmount",
          "type": "uint256"
        },
        {
          "internalType": "uint256",
          "name": "limitThresholdAmount",
          "type": "uint256"
        },
        {
          "internalType": "uint256",
          "name": "borrowedAmount",
          "type": "uint256"
        }
      ],
      "stateMutability": "view",
      "type": "function"
    },
    {
      "inputs": [
        {
          "internalType": "address",
          "name": "tokenAddress",
          "type": "address"
        },
        {
          "internalType": "uint256",
          "name": "amount",
          "type": "uint256"
        }
      ],
      "name": "deposit",
      "outputs": [],
      "stateMutability": "payable",
      "type": "function"
    },
    {
      "inputs": [
        {
          "internalType": "address",
          "name": "",
          "type": "address"
        }
      ],
      "name": "depositors",
      "outputs": [
        {
          "internalType": "uint256",
          "name": "usdcAmount",
          "type": "uint256"
        },
        {
          "internalType": "uint256",
          "name": "time",
          "type": "uint256"
        }
      ],
      "stateMutability": "view",
      "type": "function"
    },
    {
      "inputs": [],
      "name": "getBorrowedAmount",
      "outputs": [
        {
          "internalType": "uint256",
          "name": "amount",
          "type": "uint256"
        }
      ],
      "stateMutability": "view",
      "type": "function"
    },
    {
      "inputs": [],
      "name": "getCollateral",
      "outputs": [
        {
          "internalType": "uint256",
          "name": "amount",
          "type": "uint256"
        }
      ],
      "stateMutability": "view",
      "type": "function"
    },
    {
      "inputs": [
        {
          "internalType": "address",
          "name": "user",
          "type": "address"
        },
        {
          "internalType": "address",
          "name": "tokenAddress",
          "type": "address"
        },
        {
          "internalType": "uint256",
          "name": "amount",
          "type": "uint256"
        }
      ],
      "name": "liquidate",
      "outputs": [],
      "stateMutability": "payable",
      "type": "function"
    },
    {
      "inputs": [
        {
          "internalType": "address",
          "name": "tokenAddress",
          "type": "address"
        },
        {
          "internalType": "uint256",
          "name": "amount",
          "type": "uint256"
        }
      ],
      "name": "repay",
      "outputs": [],
      "stateMutability": "nonpayable",
      "type": "function"
    },
    {
      "inputs": [
        {
          "internalType": "address",
          "name": "tokenAddress",
          "type": "address"
        },
        {
          "internalType": "uint256",
          "name": "amount",
          "type": "uint256"
        }
      ],
      "name": "withdraw",
      "outputs": [],
      "stateMutability": "payable",
      "type": "function"
    }
  ],
  "bytecode": {
    "object": "0x6080604052600180546001600160a01b0319166112341790553480156200002557600080fd5b5060405162001d8938038062001d89833981016040819052620000489162000097565b600080546001600160a01b039384166001600160a01b03199182161790915560028054929093169116179055620000cf565b80516001600160a01b03811681146200009257600080fd5b919050565b60008060408385031215620000ab57600080fd5b620000b6836200007a565b9150620000c6602084016200007a565b90509250929050565b611caa80620000df6000396000f3fe6080604052600436106100865760003560e01c80635c1548fb116100595780635c1548fb146100f3578063bf5d50c414610124578063d6dc867a146101a8578063eed75f6d146101cd578063f3fef3a31461021657600080fd5b806322867d781461008b57806326c01303146100ad57806347e7ef24146100c05780634b8a3529146100d3575b600080fd5b34801561009757600080fd5b506100ab6100a636600461194e565b610229565b005b6100ab6100bb366004611978565b61040c565b6100ab6100ce36600461194e565b610b2a565b3480156100df57600080fd5b506100ab6100ee36600461194e565b61107f565b3480156100ff57600080fd5b50336000908152600360205260409020545b6040519081526020015b60405180910390f35b34801561013057600080fd5b5061017b61013f3660046119b4565b60036020528060005260406000206000915090508060000154908060010154908060020154908060030154908060040154908060050154905086565b604080519687526020870195909552938501929092526060840152608083015260a082015260c00161011b565b3480156101b457600080fd5b5033600090815260036020526040902060020154610111565b3480156101d957600080fd5b506102016101e83660046119b4565b6004602052600090815260409020805460019091015482565b6040805192835260208301919091520161011b565b6100ab61022436600461194e565b611293565b6000546001600160a01b0383811691161461025f5760405162461bcd60e51b8152600401610256906119cf565b60405180910390fd5b336000908152600360208181526040808420815160c0810183528154815260018201549381018490526002820154928101929092529283015460608201526004830154608082015260059092015460a083015290919062015180906102c49042611a15565b6102ce9190611a28565b905060006102e08360a00151836115f3565b60a08401519091506000906102f581856115f3565b6102ff9190611a15565b9050600061030d8287611a15565b905085831115610348576103218684611a15565b60a086015260408501805182919061033a908390611a4a565b905250426020860152610374565b600060a0860181905260208601819052604086018051610369908390611a4a565b905250600060608601525b6103896001600160a01b03881633308961162a565b336000818152600360208181526040928390208951808255918a015160018201819055848b01516002830181905560608c015194830185905560808c0151600484015560a08c015160059093018390559451600080516020611c55833981519152966103fb9690959293909291611a5d565b60405180910390a150505050505050565b6000546001600160a01b038381169116146104395760405162461bcd60e51b8152600401610256906119cf565b6001600160a01b03831660009081526003602052604090205461049e5760405162461bcd60e51b815260206004820152601b60248201527f746869732075736572206973206e6f74206170706c696361626c6500000000006044820152606401610256565b6001600160a01b038381166000908152600360208181526040808420815160c081018352815481526001808301549482019490945260028083015482850152948201546060820152600480830154608083015260059092015460a08201529354925491516341976e0960e01b8152918616908201529193670de0b6b3a7640000929116906341976e0990602401602060405180830381865afa158015610548573d6000803e3d6000fd5b505050506040513d601f19601f8201168201806040525081019061056c9190611a90565b83516105789190611aa9565b6105829190611a28565b905081606001518111156105d85760405162461bcd60e51b815260206004820152601e60248201527f54686520707269636520686173206e6f74206265656e207265616368656400006044820152606401610256565b6000808360800151831115610808576105f2856002611aa9565b8460a00151111561065d5760405162461bcd60e51b815260206004820152602f60248201527f54686520616d6f756e7420746861742063616e2062652072657061696420686160448201526e1cc81899595b88195e18d959591959608a1b6064820152608401610256565b6103e861066b603287611aa9565b6106759190611a28565b6002546001546040516341976e0960e01b81526001600160a01b03918216600482015292945016906341976e0990602401602060405180830381865afa1580156106c3573d6000803e3d6000fd5b505050506040513d601f19601f820116820180604052508101906106e79190611a90565b6106f18387611a4a565b61070390670de0b6b3a7640000611aa9565b61070d9190611a28565b90506000620151808560200151426107259190611a15565b61072f9190611a28565b905061073f8560a00151826115f3565b60a0860152845182908690610755908390611a15565b90525060a08501805187919061076c908390611a15565b9052504260208601526080850151604086015161078a908890611a4a565b10156107a5578585604001516107a09190611a4a565b6107ab565b84608001515b60408087019182526001600160a01b038a166000908152600360208181529290912088518155918801516001830155915160028201556060870151918101919091556080860151600482015560a0860151600590910155506109f0565b6103e88460800151600261081c9190611aa9565b610828906101c2611aa9565b6108329190611a28565b851061087c575082516001600160a01b03871660009081526003602081905260408220828155600181018390556002810183905590810182905560048101829055600501556109f0565b6002546001546040516341976e0960e01b81526001600160a01b0391821660048201529116906341976e0990602401602060405180830381865afa1580156108c8573d6000803e3d6000fd5b505050506040513d601f19601f820116820180604052508101906108ec9190611a90565b6108fe86670de0b6b3a7640000611aa9565b6109089190611a28565b90506103e8610918603283611aa9565b6109229190611a28565b915061092e8282611a4a565b905080846000018181516109429190611a15565b90525060a084018051869190610959908390611a15565b90525042602085015260808401516040850151610977908790611a4a565b10156109925784846040015161098d9190611a4a565b610998565b83608001515b60408086019182526001600160a01b0389166000908152600360208181529290912087518155918701516001830155915160028201556060860151918101919091556080850151600482015560a08501516005909101555b600054610a08906001600160a01b031633308861162a565b604051600090339083156108fc0290849084818181858888f19350505050905080610a6c5760405162461bcd60e51b81526020600482015260146024820152732330b4b632b2103a379039b2b7321022ba3432b960611b6044820152606401610256565b6000600360008a6001600160a01b03166001600160a01b031681526020019081526020016000206040518060c001604052908160008201548152602001600182015481526020016002820154815260200160038201548152602001600482015481526020016005820154815250509050600080516020611c558339815191528982600001518360200151846040015185606001518660a00151604051610b1796959493929190611a5d565b60405180910390a1505050505050505050565b6001600160a01b0382161580610b4d57506000546001600160a01b038381169116145b610b995760405162461bcd60e51b815260206004820152601c60248201527f6f6e6c7920555344432c455448455220697320737570706f72746564000000006044820152606401610256565b3415610eca576002546001546040516341976e0960e01b81526001600160a01b039182166004820152600092670de0b6b3a76400009216906341976e0990602401602060405180830381865afa158015610bf7573d6000803e3d6000fd5b505050506040513d601f19601f82011682018060405250810190610c1b9190611a90565b610c259034611aa9565b610c2f9190611a28565b9050610c6a6040518060c001604052806000815260200160008152602001600081526020016000815260200160008152602001600081525090565b336000908152600360205260408120549003610cfd576040805160c081018252348152600060208201529081016103e8610ca66101f486611aa9565b610cb09190611a28565b81526020016103e8610cc46102ee86611aa9565b610cce9190611a28565b81526020016103e8610ce26101f486611aa9565b610cec9190611a28565b815260200160008152509050610dee565b5033600090815260036020818152604092839020835160c08101855281548082526001830154938201939093526002820154948101949094529182015460608401526004820154608084015260059091015460a083015234908290610d63908390611a4a565b9052506103e8610d756101f484611aa9565b610d7f9190611a28565b81604001818151610d909190611a4a565b9052506103e8610da26102ee84611aa9565b610dac9190611a28565b81606001818151610dbd9190611a4a565b9052506103e8610dcf6101f484611aa9565b610dd99190611a28565b81608001818151610dea9190611a4a565b9052505b33600081815260036020818152604092839020855181558582015160018201558584015160028201556060860151928101929092556080850151600483015560a0850151600590920191909155815192835234908301527f38b5e246f65c3bca435cc3741f592a92a1e946b0d2d632c85c4dadc0003313ec910160405180910390a133600081815260036020819052604091829020805460018201546002830154938301546005909301549451600080516020611c5583398151915296610ebc969095939492939291611a5d565b60405180910390a150505050565b6000546001600160a01b039081169083160361107b5760008111610f305760405162461bcd60e51b815260206004820152601e60248201527f416d6f756e74206d7573742062652067726561746572207468616e20302000006044820152606401610256565b6040805180820190915260008082526020820152336000908152600460205260408120549003610f73575060408051808201909152818152426020820152610fb4565b5033600090815260046020908152604091829020825180840190935280548084526001909101549183019190915282908290610fb0908390611a4a565b9052505b3360008181526004602090815260409091208351815590830151600190910155610fea906001600160a01b03851690308561162a565b60408051338152602081018490527fe7440f6772025dec9be06ba934e6ee5289b73533ee2136ba668f6cb6ea3f56a8910160405180910390a1336000818152600460209081526040918290208054600190910154835194855291840152908201527fe624e43627b2789dda845b4c8213adecf35d1416a38bce72fb8ae9d77cbc8bed906060015b60405180910390a1505b5050565b6000546001600160a01b038381169116146110ac5760405162461bcd60e51b8152600401610256906119cf565b33600090815260036020818152604092839020835160c08101855281548082526001830154938201939093526002820154948101949094529182015460608401526004820154608084015260059091015460a083015261114e5760405162461bcd60e51b815260206004820152601b60248201527f496e70757420796f757220636f6c6c61746572616c20666972737400000000006044820152606401610256565b81816040015110156111b45760405162461bcd60e51b815260206004820152602960248201527f416d6f756e742067726561746572207468616e2074686520626f72726f7761626044820152681b1948185b5bdd5b9d60ba1b6064820152608401610256565b818160a0018181516111c69190611a4a565b9052506040810180518391906111dd908390611a15565b905250426020808301918252336000818152600392839052604090819020855181559351600185015584015160028401556060840151918301919091556080830151600483015560a0830151600590920191909155611247906001600160a01b038516908461169b565b33600081815260036020819052604091829020805460018201546002830154938301546005909301549451600080516020611c5583398151915296611071969095939492939291611a5d565b6000546001600160a01b03838116911614806112b657506001600160a01b038216155b6112d25760405162461bcd60e51b8152600401610256906119cf565b6000546001600160a01b039081169083160361145a573360009081526004602090815260409182902082518084019093528054808452600190910154918301919091526113615760405162461bcd60e51b815260206004820152601860248201527f796f75206d757374206265206465706f736974207573646300000000000000006044820152606401610256565b6000620151808260200151426113779190611a15565b6113819190611a28565b90506113918260000151826115f3565b8083528390036113b657336000908152600460205260408120818155600101556113f1565b4260208301528151839083906113cd908390611a15565b90525033600090815260046020908152604090912083518155908301516001909101555b600054611408906001600160a01b0316338561169b565b336000818152600460209081526040918290208054600190910154835194855291840152908201527fe624e43627b2789dda845b4c8213adecf35d1416a38bce72fb8ae9d77cbc8bed90606001610ebc565b33600090815260036020818152604092839020835160c081018552815481526001820154928101929092526002810154938201939093529082015460608201526004820154608082015260059091015460a08201819052156114fe5760405162461bcd60e51b815260206004820152601960248201527f596f75206469646e742072656465656d20636f6d706c657465000000000000006044820152606401610256565b805133600081815260036020819052604080832083815560018101849055600281018490559182018390556004820183905560059091018290555190919083156108fc0290849084818181858888f193505050509050806115985760405162461bcd60e51b81526020600482015260146024820152732330b4b632b2103a379039b2b7321032ba3432b960611b6044820152606401610256565b33600081815260036020819052604091829020805460018201546002830154938301546005909301549451600080516020611c55833981519152966115e4969095939492939291611a5d565b60405180910390a15050505050565b6000611601826103e8611bac565b61160d836103e9611bac565b6116179085611aa9565b6116219190611a28565b90505b92915050565b6040516001600160a01b03808516602483015283166044820152606481018290526116959085906323b872dd60e01b906084015b60408051601f198184030181529190526020810180516001600160e01b03166001600160e01b0319909316929092179091526116d0565b50505050565b6040516001600160a01b0383166024820152604481018290526116cb90849063a9059cbb60e01b9060640161165e565b505050565b6000611725826040518060400160405280602081526020017f5361666545524332303a206c6f772d6c6576656c2063616c6c206661696c6564815250856001600160a01b03166117a29092919063ffffffff16565b8051909150156116cb57808060200190518101906117439190611bb8565b6116cb5760405162461bcd60e51b815260206004820152602a60248201527f5361666545524332303a204552433230206f7065726174696f6e20646964206e6044820152691bdd081cdd58d8d9595960b21b6064820152608401610256565b60606117b184846000856117b9565b949350505050565b60608247101561181a5760405162461bcd60e51b815260206004820152602660248201527f416464726573733a20696e73756666696369656e742062616c616e636520666f6044820152651c8818d85b1b60d21b6064820152608401610256565b600080866001600160a01b031685876040516118369190611c05565b60006040518083038185875af1925050503d8060008114611873576040519150601f19603f3d011682016040523d82523d6000602084013e611878565b606091505b509150915061188987838387611894565b979650505050505050565b606083156119035782516000036118fc576001600160a01b0385163b6118fc5760405162461bcd60e51b815260206004820152601d60248201527f416464726573733a2063616c6c20746f206e6f6e2d636f6e74726163740000006044820152606401610256565b50816117b1565b6117b183838151156119185781518083602001fd5b8060405162461bcd60e51b81526004016102569190611c21565b80356001600160a01b038116811461194957600080fd5b919050565b6000806040838503121561196157600080fd5b61196a83611932565b946020939093013593505050565b60008060006060848603121561198d57600080fd5b61199684611932565b92506119a460208501611932565b9150604084013590509250925092565b6000602082840312156119c657600080fd5b61162182611932565b60208082526016908201527513db9b1e481554d110c81a5cc81cdd5c1c1bdc9d195960521b604082015260600190565b634e487b7160e01b600052601160045260246000fd5b81810381811115611624576116246119ff565b600082611a4557634e487b7160e01b600052601260045260246000fd5b500490565b80820180821115611624576116246119ff565b6001600160a01b03969096168652602086019490945260408501929092526060840152608083015260a082015260c00190565b600060208284031215611aa257600080fd5b5051919050565b6000816000190483118215151615611ac357611ac36119ff565b500290565b600181815b80851115611b03578160001904821115611ae957611ae96119ff565b80851615611af657918102915b93841c9390800290611acd565b509250929050565b600082611b1a57506001611624565b81611b2757506000611624565b8160018114611b3d5760028114611b4757611b63565b6001915050611624565b60ff841115611b5857611b586119ff565b50506001821b611624565b5060208310610133831016604e8410600b8410161715611b86575081810a611624565b611b908383611ac8565b8060001904821115611ba457611ba46119ff565b029392505050565b60006116218383611b0b565b600060208284031215611bca57600080fd5b81518015158114611bda57600080fd5b9392505050565b60005b83811015611bfc578181015183820152602001611be4565b50506000910152565b60008251611c17818460208701611be1565b9190910192915050565b6020815260008251806020840152611c40816040850160208701611be1565b601f01601f1916919091016040019291505056fe0468858ec7fe24c8494e80fa67fb621b3d98281d679063334bde99f2cbfe1501a2646970667358221220add09c6a10c60bb08dc3903cca434cc4a33134c6b4cae06eb96dfb2884fd33c264736f6c63430008100033",
    "linkReferences": {}
  },
  "methodIdentifiers": {
    "borrow(address,uint256)": "4b8a3529",
    "borrowers(address)": "bf5d50c4",
    "deposit(address,uint256)": "47e7ef24",
    "depositors(address)": "eed75f6d",
    "getBorrowedAmount()": "d6dc867a",
    "getCollateral()": "5c1548fb",
    "liquidate(address,address,uint256)": "26c01303",
    "repay(address,uint256)": "22867d78",
    "withdraw(address,uint256)": "f3fef3a3"
  },
  "id": 15
}