{
  "abi": [
    {
      "inputs": [
        {
          "internalType": "address",
          "name": "token",
          "type": "address"
        },
        {
          "internalType": "address",
          "name": "oracle",
          "type": "address"
        }
      ],
      "stateMutability": "nonpayable",
      "type": "constructor"
    },
    {
      "anonymous": false,
      "inputs": [
        {
          "indexed": false,
          "internalType": "address",
          "name": "borrowerAddr",
          "type": "address"
        },
        {
          "indexed": false,
          "internalType": "uint256",
          "name": "ethAmount",
          "type": "uint256"
        },
        {
          "indexed": false,
          "internalType": "uint256",
          "name": "time",
          "type": "uint256"
        },
        {
          "indexed": false,
          "internalType": "uint256",
          "name": "borrowableAmount",
          "type": "uint256"
        },
        {
          "indexed": false,
          "internalType": "uint256",
          "name": "threshold",
          "type": "uint256"
        },
        {
          "indexed": false,
          "internalType": "uint256",
          "name": "borrowedAmount",
          "type": "uint256"
        }
      ],
      "name": "BorrowerInfo",
      "type": "event"
    },
    {
      "anonymous": false,
      "inputs": [
        {
          "indexed": false,
          "internalType": "address",
          "name": "from",
          "type": "address"
        },
        {
          "indexed": false,
          "internalType": "uint256",
          "name": "amount",
          "type": "uint256"
        }
      ],
      "name": "DepositETHER",
      "type": "event"
    },
    {
      "anonymous": false,
      "inputs": [
        {
          "indexed": false,
          "internalType": "address",
          "name": "from",
          "type": "address"
        },
        {
          "indexed": false,
          "internalType": "uint256",
          "name": "amount",
          "type": "uint256"
        }
      ],
      "name": "DepositUSDC",
      "type": "event"
    },
    {
      "anonymous": false,
      "inputs": [
        {
          "indexed": false,
          "internalType": "address",
          "name": "depositorAddr",
          "type": "address"
        },
        {
          "indexed": false,
          "internalType": "uint256",
          "name": "usdcAmount",
          "type": "uint256"
        },
        {
          "indexed": false,
          "internalType": "uint256",
          "name": "time",
          "type": "uint256"
        }
      ],
      "name": "DepositorInfo",
      "type": "event"
    },
    {
      "inputs": [
        {
          "internalType": "address",
          "name": "tokenAddress",
          "type": "address"
        },
        {
          "internalType": "uint256",
          "name": "amount",
          "type": "uint256"
        }
      ],
      "name": "borrow",
      "outputs": [],
      "stateMutability": "nonpayable",
      "type": "function"
    },
    {
      "inputs": [
        {
          "internalType": "address",
          "name": "",
          "type": "address"
        }
      ],
      "name": "borrowers",
      "outputs": [
        {
          "internalType": "uint256",
          "name": "ethAmount",
          "type": "uint256"
        },
        {
          "internalType": "uint256",
          "name": "time",
          "type": "uint256"
        },
        {
          "internalType": "uint256",
          "name": "borrowableAmount",
          "type": "uint256"
        },
        {
          "internalType": "uint256",
          "name": "thresholdAmount",
          "type": "uint256"
        },
        {
          "internalType": "uint256",
          "name": "limitThresholdAmount",
          "type": "uint256"
        },
        {
          "internalType": "uint256",
          "name": "borrowedAmount",
          "type": "uint256"
        }
      ],
      "stateMutability": "view",
      "type": "function"
    },
    {
      "inputs": [
        {
          "internalType": "address",
          "name": "tokenAddress",
          "type": "address"
        },
        {
          "internalType": "uint256",
          "name": "amount",
          "type": "uint256"
        }
      ],
      "name": "deposit",
      "outputs": [],
      "stateMutability": "payable",
      "type": "function"
    },
    {
      "inputs": [
        {
          "internalType": "address",
          "name": "",
          "type": "address"
        }
      ],
      "name": "depositors",
      "outputs": [
        {
          "internalType": "uint256",
          "name": "usdcAmount",
          "type": "uint256"
        },
        {
          "internalType": "uint256",
          "name": "time",
          "type": "uint256"
        }
      ],
      "stateMutability": "view",
      "type": "function"
    },
    {
      "inputs": [],
      "name": "getBorrowedAmount",
      "outputs": [
        {
          "internalType": "uint256",
          "name": "amount",
          "type": "uint256"
        }
      ],
      "stateMutability": "view",
      "type": "function"
    },
    {
      "inputs": [],
      "name": "getCollateral",
      "outputs": [
        {
          "internalType": "uint256",
          "name": "amount",
          "type": "uint256"
        }
      ],
      "stateMutability": "view",
      "type": "function"
    },
    {
      "inputs": [
        {
          "internalType": "address",
          "name": "user",
          "type": "address"
        },
        {
          "internalType": "address",
          "name": "tokenAddress",
          "type": "address"
        },
        {
          "internalType": "uint256",
          "name": "amount",
          "type": "uint256"
        }
      ],
      "name": "liquidate",
      "outputs": [],
      "stateMutability": "payable",
      "type": "function"
    },
    {
      "inputs": [
        {
          "internalType": "address",
          "name": "tokenAddress",
          "type": "address"
        },
        {
          "internalType": "uint256",
          "name": "amount",
          "type": "uint256"
        }
      ],
      "name": "repay",
      "outputs": [],
      "stateMutability": "nonpayable",
      "type": "function"
    },
    {
      "inputs": [
        {
          "internalType": "address",
          "name": "tokenAddress",
          "type": "address"
        },
        {
          "internalType": "uint256",
          "name": "amount",
          "type": "uint256"
        }
      ],
      "name": "withdraw",
      "outputs": [],
      "stateMutability": "payable",
      "type": "function"
    }
  ],
  "bytecode": {
    "object": "0x6080604052600180546001600160a01b0319166112341790553480156200002557600080fd5b5060405162001e2738038062001e27833981016040819052620000489162000097565b600080546001600160a01b039384166001600160a01b03199182161790915560028054929093169116179055620000cf565b80516001600160a01b03811681146200009257600080fd5b919050565b60008060408385031215620000ab57600080fd5b620000b6836200007a565b9150620000c6602084016200007a565b90509250929050565b611d4880620000df6000396000f3fe6080604052600436106100865760003560e01c80635c1548fb116100595780635c1548fb146100f3578063bf5d50c414610124578063d6dc867a146101a8578063eed75f6d146101cd578063f3fef3a31461021657600080fd5b806322867d781461008b57806326c01303146100ad57806347e7ef24146100c05780634b8a3529146100d3575b600080fd5b34801561009757600080fd5b506100ab6100a63660046119ec565b610229565b005b6100ab6100bb366004611a16565b61040c565b6100ab6100ce3660046119ec565b610b34565b3480156100df57600080fd5b506100ab6100ee3660046119ec565b611089565b3480156100ff57600080fd5b50336000908152600360205260409020545b6040519081526020015b60405180910390f35b34801561013057600080fd5b5061017b61013f366004611a52565b60036020528060005260406000206000915090508060000154908060010154908060020154908060030154908060040154908060050154905086565b604080519687526020870195909552938501929092526060840152608083015260a082015260c00161011b565b3480156101b457600080fd5b5033600090815260036020526040902060020154610111565b3480156101d957600080fd5b506102016101e8366004611a52565b6004602052600090815260409020805460019091015482565b6040805192835260208301919091520161011b565b6100ab6102243660046119ec565b61129d565b6000546001600160a01b0383811691161461025f5760405162461bcd60e51b815260040161025690611a6d565b60405180910390fd5b336000908152600360208181526040808420815160c0810183528154815260018201549381018490526002820154928101929092529283015460608201526004830154608082015260059092015460a083015290919062015180906102c49042611ab3565b6102ce9190611ac6565b905060006102e08360a0015183611628565b60a08401519091506000906102f58185611628565b6102ff9190611ab3565b9050600061030d8287611ab3565b905085831115610348576103218684611ab3565b60a086015260408501805182919061033a908390611ae8565b905250426020860152610374565b600060a0860181905260208601819052604086018051610369908390611ae8565b905250600060608601525b6103896001600160a01b03881633308961165f565b336000818152600360208181526040928390208951808255918a015160018201819055848b01516002830181905560608c015194830185905560808c0151600484015560a08c015160059093018390559451600080516020611cf3833981519152966103fb9690959293909291611afb565b60405180910390a150505050505050565b6000546001600160a01b038381169116146104395760405162461bcd60e51b815260040161025690611a6d565b6001600160a01b03831660009081526003602052604090205461049e5760405162461bcd60e51b815260206004820152601b60248201527f746869732075736572206973206e6f74206170706c696361626c6500000000006044820152606401610256565b6001600160a01b038381166000908152600360208181526040808420815160c081018352815481526001808301549482019490945260028083015482850152948201546060820152600480830154608083015260059092015460a08201529354925491516341976e0960e01b8152918616908201529193670de0b6b3a7640000929116906341976e0990602401602060405180830381865afa158015610548573d6000803e3d6000fd5b505050506040513d601f19601f8201168201806040525081019061056c9190611b2e565b83516105789190611b47565b6105829190611ac6565b905081606001518111156105ea5760405162461bcd60e51b815260206004820152602960248201527f45746865722070726963652069732067726561746572207468616e20746865206044820152681d1a1c995cda1bdb1960ba1b6064820152608401610256565b600080836080015183111561081a57610604856002611b47565b8460a00151111561066f5760405162461bcd60e51b815260206004820152602f60248201527f54686520616d6f756e7420746861742063616e2062652072657061696420686160448201526e1cc81899595b88195e18d959591959608a1b6064820152608401610256565b6103e861067d603287611b47565b6106879190611ac6565b6002546001546040516341976e0960e01b81526001600160a01b03918216600482015292945016906341976e0990602401602060405180830381865afa1580156106d5573d6000803e3d6000fd5b505050506040513d601f19601f820116820180604052508101906106f99190611b2e565b6107038387611ae8565b61071590670de0b6b3a7640000611b47565b61071f9190611ac6565b90506000620151808560200151426107379190611ab3565b6107419190611ac6565b90506107518560a0015182611628565b60a0860152845182908690610767908390611ab3565b90525060a08501805187919061077e908390611ab3565b9052504260208601526080850151604086015161079c908890611ae8565b10156107b7578585604001516107b29190611ae8565b6107bd565b84608001515b60408087019182526001600160a01b038a166000908152600360208181529290912088518155918801516001830155915160028201556060870151918101919091556080860151600482015560a086015160059091015550610a02565b6103e88460800151600261082e9190611b47565b61083a906101c2611b47565b6108449190611ac6565b851061088e575082516001600160a01b0387166000908152600360208190526040822082815560018101839055600281018390559081018290556004810182905560050155610a02565b6002546001546040516341976e0960e01b81526001600160a01b0391821660048201529116906341976e0990602401602060405180830381865afa1580156108da573d6000803e3d6000fd5b505050506040513d601f19601f820116820180604052508101906108fe9190611b2e565b61091086670de0b6b3a7640000611b47565b61091a9190611ac6565b90506103e861092a603283611b47565b6109349190611ac6565b91506109408282611ae8565b905080846000018181516109549190611ab3565b90525060a08401805186919061096b908390611ab3565b90525042602085015260808401516040850151610989908790611ae8565b10156109a45784846040015161099f9190611ae8565b6109aa565b83608001515b60408086019182526001600160a01b0389166000908152600360208181529290912087518155918701516001830155915160028201556060860151918101919091556080850151600482015560a08501516005909101555b600054610a1a906001600160a01b031633308861165f565b604051600090339083156108fc0290849084818181858888f19350505050905080610a7e5760405162461bcd60e51b81526020600482015260146024820152732330b4b632b2103a379039b2b7321022ba3432b960611b6044820152606401610256565b6001600160a01b038816600090815260036020818152604092839020835160c08101855281548082526001830154938201939093526002820154948101949094529182015460608401526004820154608084015260059091015460a0830152610ae6906116d0565b600080516020611cf38339815191528982600001518360200151846040015185606001518660a00151604051610b2196959493929190611afb565b60405180910390a1505050505050505050565b6001600160a01b0382161580610b5757506000546001600160a01b038381169116145b610ba35760405162461bcd60e51b815260206004820152601c60248201527f6f6e6c7920555344432c455448455220697320737570706f72746564000000006044820152606401610256565b3415610ed4576002546001546040516341976e0960e01b81526001600160a01b039182166004820152600092670de0b6b3a76400009216906341976e0990602401602060405180830381865afa158015610c01573d6000803e3d6000fd5b505050506040513d601f19601f82011682018060405250810190610c259190611b2e565b610c2f9034611b47565b610c399190611ac6565b9050610c746040518060c001604052806000815260200160008152602001600081526020016000815260200160008152602001600081525090565b336000908152600360205260408120549003610d07576040805160c081018252348152600060208201529081016103e8610cb06101f486611b47565b610cba9190611ac6565b81526020016103e8610cce6102ee86611b47565b610cd89190611ac6565b81526020016103e8610cec6101f486611b47565b610cf69190611ac6565b815260200160008152509050610df8565b5033600090815260036020818152604092839020835160c08101855281548082526001830154938201939093526002820154948101949094529182015460608401526004820154608084015260059091015460a083015234908290610d6d908390611ae8565b9052506103e8610d7f6101f484611b47565b610d899190611ac6565b81604001818151610d9a9190611ae8565b9052506103e8610dac6102ee84611b47565b610db69190611ac6565b81606001818151610dc79190611ae8565b9052506103e8610dd96101f484611b47565b610de39190611ac6565b81608001818151610df49190611ae8565b9052505b33600081815260036020818152604092839020855181558582015160018201558584015160028201556060860151928101929092556080850151600483015560a0850151600590920191909155815192835234908301527f38b5e246f65c3bca435cc3741f592a92a1e946b0d2d632c85c4dadc0003313ec910160405180910390a133600081815260036020819052604091829020805460018201546002830154938301546005909301549451600080516020611cf383398151915296610ec6969095939492939291611afb565b60405180910390a150505050565b6000546001600160a01b03908116908316036110855760008111610f3a5760405162461bcd60e51b815260206004820152601e60248201527f416d6f756e74206d7573742062652067726561746572207468616e20302000006044820152606401610256565b6040805180820190915260008082526020820152336000908152600460205260408120549003610f7d575060408051808201909152818152426020820152610fbe565b5033600090815260046020908152604091829020825180840190935280548084526001909101549183019190915282908290610fba908390611ae8565b9052505b3360008181526004602090815260409091208351815590830151600190910155610ff4906001600160a01b03851690308561165f565b60408051338152602081018490527fe7440f6772025dec9be06ba934e6ee5289b73533ee2136ba668f6cb6ea3f56a8910160405180910390a1336000818152600460209081526040918290208054600190910154835194855291840152908201527fe624e43627b2789dda845b4c8213adecf35d1416a38bce72fb8ae9d77cbc8bed906060015b60405180910390a1505b5050565b6000546001600160a01b038381169116146110b65760405162461bcd60e51b815260040161025690611a6d565b33600090815260036020818152604092839020835160c08101855281548082526001830154938201939093526002820154948101949094529182015460608401526004820154608084015260059091015460a08301526111585760405162461bcd60e51b815260206004820152601b60248201527f496e70757420796f757220636f6c6c61746572616c20666972737400000000006044820152606401610256565b81816040015110156111be5760405162461bcd60e51b815260206004820152602960248201527f416d6f756e742067726561746572207468616e2074686520626f72726f7761626044820152681b1948185b5bdd5b9d60ba1b6064820152608401610256565b818160a0018181516111d09190611ae8565b9052506040810180518391906111e7908390611ab3565b905250426020808301918252336000818152600392839052604090819020855181559351600185015584015160028401556060840151918301919091556080830151600483015560a0830151600590920191909155611251906001600160a01b0385169084611718565b33600081815260036020819052604091829020805460018201546002830154938301546005909301549451600080516020611cf38339815191529661107b969095939492939291611afb565b6000546001600160a01b03838116911614806112c057506001600160a01b038216155b6112dc5760405162461bcd60e51b815260040161025690611a6d565b6000546001600160a01b03908116908316036114645733600090815260046020908152604091829020825180840190935280548084526001909101549183019190915261136b5760405162461bcd60e51b815260206004820152601860248201527f796f75206d757374206265206465706f736974207573646300000000000000006044820152606401610256565b6000620151808260200151426113819190611ab3565b61138b9190611ac6565b905061139b826000015182611628565b8083528390036113c057336000908152600460205260408120818155600101556113fb565b4260208301528151839083906113d7908390611ab3565b90525033600090815260046020908152604090912083518155908301516001909101555b600054611412906001600160a01b03163385611718565b336000818152600460209081526040918290208054600190910154835194855291840152908201527fe624e43627b2789dda845b4c8213adecf35d1416a38bce72fb8ae9d77cbc8bed90606001610ec6565b33600090815260036020818152604092839020835160c081018552815481526001820154928101929092526002810154938201939093529082015460608201526004820154608082015260059091015460a08201819052156115085760405162461bcd60e51b815260206004820152601960248201527f596f75206469646e742072656465656d20636f6d706c657465000000000000006044820152606401610256565b805133600081815260036020819052604080832083815560018101849055600281018490559182018390556004820183905560059091018290555190919083908381818185875af1925050503d8060008114611580576040519150601f19603f3d011682016040523d82523d6000602084013e611585565b606091505b50509050806115cd5760405162461bcd60e51b81526020600482015260146024820152732330b4b632b2103a379039b2b7321032ba3432b960611b6044820152606401610256565b33600081815260036020819052604091829020805460018201546002830154938301546005909301549451600080516020611cf383398151915296611619969095939492939291611afb565b60405180910390a15050505050565b6000611636826103e8611c4a565b611642836103e9611c4a565b61164c9085611b47565b6116569190611ac6565b90505b92915050565b6040516001600160a01b03808516602483015283166044820152606481018290526116ca9085906323b872dd60e01b906084015b60408051601f198184030181529190526020810180516001600160e01b03166001600160e01b03199093169290921790915261174d565b50505050565b611715816040516024016116e691815260200190565b60408051601f198184030181529190526020810180516001600160e01b031663f5b1bba960e01b17905261181f565b50565b6040516001600160a01b03831660248201526044810182905261174890849063a9059cbb60e01b90606401611693565b505050565b60006117a2826040518060400160405280602081526020017f5361666545524332303a206c6f772d6c6576656c2063616c6c206661696c6564815250856001600160a01b03166118409092919063ffffffff16565b80519091501561174857808060200190518101906117c09190611c56565b6117485760405162461bcd60e51b815260206004820152602a60248201527f5361666545524332303a204552433230206f7065726174696f6e20646964206e6044820152691bdd081cdd58d8d9595960b21b6064820152608401610256565b80516a636f6e736f6c652e6c6f67602083016000808483855afa5050505050565b606061184f8484600085611857565b949350505050565b6060824710156118b85760405162461bcd60e51b815260206004820152602660248201527f416464726573733a20696e73756666696369656e742062616c616e636520666f6044820152651c8818d85b1b60d21b6064820152608401610256565b600080866001600160a01b031685876040516118d49190611ca3565b60006040518083038185875af1925050503d8060008114611911576040519150601f19603f3d011682016040523d82523d6000602084013e611916565b606091505b509150915061192787838387611932565b979650505050505050565b606083156119a157825160000361199a576001600160a01b0385163b61199a5760405162461bcd60e51b815260206004820152601d60248201527f416464726573733a2063616c6c20746f206e6f6e2d636f6e74726163740000006044820152606401610256565b508161184f565b61184f83838151156119b65781518083602001fd5b8060405162461bcd60e51b81526004016102569190611cbf565b80356001600160a01b03811681146119e757600080fd5b919050565b600080604083850312156119ff57600080fd5b611a08836119d0565b946020939093013593505050565b600080600060608486031215611a2b57600080fd5b611a34846119d0565b9250611a42602085016119d0565b9150604084013590509250925092565b600060208284031215611a6457600080fd5b611656826119d0565b60208082526016908201527513db9b1e481554d110c81a5cc81cdd5c1c1bdc9d195960521b604082015260600190565b634e487b7160e01b600052601160045260246000fd5b8181038181111561165957611659611a9d565b600082611ae357634e487b7160e01b600052601260045260246000fd5b500490565b8082018082111561165957611659611a9d565b6001600160a01b03969096168652602086019490945260408501929092526060840152608083015260a082015260c00190565b600060208284031215611b4057600080fd5b5051919050565b6000816000190483118215151615611b6157611b61611a9d565b500290565b600181815b80851115611ba1578160001904821115611b8757611b87611a9d565b80851615611b9457918102915b93841c9390800290611b6b565b509250929050565b600082611bb857506001611659565b81611bc557506000611659565b8160018114611bdb5760028114611be557611c01565b6001915050611659565b60ff841115611bf657611bf6611a9d565b50506001821b611659565b5060208310610133831016604e8410600b8410161715611c24575081810a611659565b611c2e8383611b66565b8060001904821115611c4257611c42611a9d565b029392505050565b60006116568383611ba9565b600060208284031215611c6857600080fd5b81518015158114611c7857600080fd5b9392505050565b60005b83811015611c9a578181015183820152602001611c82565b50506000910152565b60008251611cb5818460208701611c7f565b9190910192915050565b6020815260008251806020840152611cde816040850160208701611c7f565b601f01601f1916919091016040019291505056fe0468858ec7fe24c8494e80fa67fb621b3d98281d679063334bde99f2cbfe1501a2646970667358221220200430d910225827285d9a1ac19e874dc6bd946415816d5b076801365a9ca96b64736f6c63430008100033",
    "linkReferences": {}
  },
  "methodIdentifiers": {
    "borrow(address,uint256)": "4b8a3529",
    "borrowers(address)": "bf5d50c4",
    "deposit(address,uint256)": "47e7ef24",
    "depositors(address)": "eed75f6d",
    "getBorrowedAmount()": "d6dc867a",
    "getCollateral()": "5c1548fb",
    "liquidate(address,address,uint256)": "26c01303",
    "repay(address,uint256)": "22867d78",
    "withdraw(address,uint256)": "f3fef3a3"
  },
  "id": 15
}