{
  "abi": [
    {
      "inputs": [
        {
          "internalType": "address",
          "name": "token",
          "type": "address"
        },
        {
          "internalType": "address",
          "name": "oracle",
          "type": "address"
        }
      ],
      "stateMutability": "nonpayable",
      "type": "constructor"
    },
    {
      "anonymous": false,
      "inputs": [
        {
          "indexed": false,
          "internalType": "address",
          "name": "borrowerAddr",
          "type": "address"
        },
        {
          "indexed": false,
          "internalType": "uint256",
          "name": "ethAmount",
          "type": "uint256"
        },
        {
          "indexed": false,
          "internalType": "uint256",
          "name": "time",
          "type": "uint256"
        },
        {
          "indexed": false,
          "internalType": "uint256",
          "name": "borrowableAmount",
          "type": "uint256"
        },
        {
          "indexed": false,
          "internalType": "uint256",
          "name": "threshold",
          "type": "uint256"
        },
        {
          "indexed": false,
          "internalType": "uint256",
          "name": "borrowedAmount",
          "type": "uint256"
        }
      ],
      "name": "BorrowerInfo",
      "type": "event"
    },
    {
      "anonymous": false,
      "inputs": [
        {
          "indexed": false,
          "internalType": "address",
          "name": "from",
          "type": "address"
        },
        {
          "indexed": false,
          "internalType": "uint256",
          "name": "amount",
          "type": "uint256"
        }
      ],
      "name": "DepositETHER",
      "type": "event"
    },
    {
      "anonymous": false,
      "inputs": [
        {
          "indexed": false,
          "internalType": "address",
          "name": "from",
          "type": "address"
        },
        {
          "indexed": false,
          "internalType": "uint256",
          "name": "amount",
          "type": "uint256"
        }
      ],
      "name": "DepositUSDC",
      "type": "event"
    },
    {
      "anonymous": false,
      "inputs": [
        {
          "indexed": false,
          "internalType": "address",
          "name": "depositorAddr",
          "type": "address"
        },
        {
          "indexed": false,
          "internalType": "uint256",
          "name": "usdcAmount",
          "type": "uint256"
        },
        {
          "indexed": false,
          "internalType": "uint256",
          "name": "time",
          "type": "uint256"
        }
      ],
      "name": "DepositorInfo",
      "type": "event"
    },
    {
      "inputs": [
        {
          "internalType": "address",
          "name": "tokenAddress",
          "type": "address"
        },
        {
          "internalType": "uint256",
          "name": "amount",
          "type": "uint256"
        }
      ],
      "name": "borrow",
      "outputs": [],
      "stateMutability": "nonpayable",
      "type": "function"
    },
    {
      "inputs": [
        {
          "internalType": "uint256",
          "name": "",
          "type": "uint256"
        }
      ],
      "name": "borrowerAddressList",
      "outputs": [
        {
          "internalType": "address",
          "name": "",
          "type": "address"
        }
      ],
      "stateMutability": "view",
      "type": "function"
    },
    {
      "inputs": [
        {
          "internalType": "address",
          "name": "",
          "type": "address"
        }
      ],
      "name": "borrowers",
      "outputs": [
        {
          "internalType": "uint256",
          "name": "ethAmount",
          "type": "uint256"
        },
        {
          "internalType": "uint256",
          "name": "time",
          "type": "uint256"
        },
        {
          "internalType": "uint256",
          "name": "borrowableAmount",
          "type": "uint256"
        },
        {
          "internalType": "uint256",
          "name": "thresholdAmount",
          "type": "uint256"
        },
        {
          "internalType": "uint256",
          "name": "limitThresholdAmount",
          "type": "uint256"
        },
        {
          "internalType": "uint256",
          "name": "borrowedAmount",
          "type": "uint256"
        }
      ],
      "stateMutability": "view",
      "type": "function"
    },
    {
      "inputs": [
        {
          "internalType": "address",
          "name": "tokenAddress",
          "type": "address"
        },
        {
          "internalType": "uint256",
          "name": "amount",
          "type": "uint256"
        }
      ],
      "name": "deposit",
      "outputs": [],
      "stateMutability": "payable",
      "type": "function"
    },
    {
      "inputs": [
        {
          "internalType": "address",
          "name": "",
          "type": "address"
        }
      ],
      "name": "depositors",
      "outputs": [
        {
          "internalType": "uint256",
          "name": "usdcAmount",
          "type": "uint256"
        },
        {
          "internalType": "uint256",
          "name": "time",
          "type": "uint256"
        }
      ],
      "stateMutability": "view",
      "type": "function"
    },
    {
      "inputs": [
        {
          "internalType": "address",
          "name": "user",
          "type": "address"
        },
        {
          "internalType": "address",
          "name": "tokenAddress",
          "type": "address"
        },
        {
          "internalType": "uint256",
          "name": "amount",
          "type": "uint256"
        }
      ],
      "name": "liquidate",
      "outputs": [],
      "stateMutability": "payable",
      "type": "function"
    },
    {
      "inputs": [
        {
          "internalType": "address",
          "name": "tokenAddress",
          "type": "address"
        },
        {
          "internalType": "uint256",
          "name": "amount",
          "type": "uint256"
        }
      ],
      "name": "repay",
      "outputs": [],
      "stateMutability": "nonpayable",
      "type": "function"
    },
    {
      "inputs": [
        {
          "internalType": "address",
          "name": "tokenAddress",
          "type": "address"
        },
        {
          "internalType": "uint256",
          "name": "amount",
          "type": "uint256"
        }
      ],
      "name": "withdraw",
      "outputs": [],
      "stateMutability": "payable",
      "type": "function"
    }
  ],
  "bytecode": {
    "object": "0x6080604052600180546001600160a01b0319166112341790553480156200002557600080fd5b5060405162001d7338038062001d73833981016040819052620000489162000097565b600080546001600160a01b039384166001600160a01b03199182161790915560028054929093169116179055620000cf565b80516001600160a01b03811681146200009257600080fd5b919050565b60008060408385031215620000ab57600080fd5b620000b6836200007a565b9150620000c6602084016200007a565b90509250929050565b611c9480620000df6000396000f3fe60806040526004361061007b5760003560e01c80634b8a35291161004e5780634b8a352914610105578063bf5d50c414610125578063eed75f6d146101a9578063f3fef3a3146101f257600080fd5b806322867d781461008057806326c01303146100a257806337908858146100b557806347e7ef24146100f2575b600080fd5b34801561008c57600080fd5b506100a061009b3660046118f1565b610205565b005b6100a06100b036600461191b565b610410565b3480156100c157600080fd5b506100d56100d0366004611957565b610b41565b6040516001600160a01b0390911681526020015b60405180910390f35b6100a06101003660046118f1565b610b6b565b34801561011157600080fd5b506100a06101203660046118f1565b610f0b565b34801561013157600080fd5b5061017c610140366004611970565b60036020528060005260406000206000915090508060000154908060010154908060020154908060030154908060040154908060050154905086565b604080519687526020870195909552938501929092526060840152608083015260a082015260c0016100e9565b3480156101b557600080fd5b506101dd6101c4366004611970565b6004602052600090815260409020805460019091015482565b604080519283526020830191909152016100e9565b6100a06102003660046118f1565b61115d565b6000546001600160a01b0383811691161461023b5760405162461bcd60e51b81526004016102329061198b565b60405180910390fd5b336000908152600360208181526040808420815160c0810183528154815260018201549381018490526002820154928101929092529283015460608201526004830154608082015260059092015460a083015290919062015180906102a090426119d1565b6102aa91906119e4565b905060006102bc8360a00151836114e8565b90506102e76040518060400160405280600781526020016618dd5c9c995b9d60ca1b8152508261151f565b60a08301516000906102f981856114e8565b61030391906119d1565b9050600061031182876119d1565b90508583111561034c5761032586846119d1565b60a086015260408501805182919061033e908390611a06565b905250426020860152610378565b600060a086018190526020860181905260408601805161036d908390611a06565b905250600060608601525b61038d6001600160a01b038816333089611564565b336000818152600360208181526040928390208951808255918a015160018201819055848b01516002830181905560608c015194830185905560808c0151600484015560a08c015160059093018390559451600080516020611c3f833981519152966103ff9690959293909291611a19565b60405180910390a150505050505050565b6000546001600160a01b0383811691161461043d5760405162461bcd60e51b81526004016102329061198b565b6001600160a01b0383166000908152600360205260409020546104a25760405162461bcd60e51b815260206004820152601b60248201527f746869732075736572206973206e6f74206170706c696361626c6500000000006044820152606401610232565b6001600160a01b038381166000908152600360208181526040808420815160c081018352815481526001808301549482019490945260028083015482850152948201546060820152600480830154608083015260059092015460a08201529354925491516341976e0960e01b8152918616908201529193670de0b6b3a7640000929116906341976e0990602401602060405180830381865afa15801561054c573d6000803e3d6000fd5b505050506040513d601f19601f820116820180604052508101906105709190611a4c565b835161057c9190611a65565b61058691906119e4565b905081606001518111156105ee5760405162461bcd60e51b815260206004820152602960248201527f45746865722070726963652069732067726561746572207468616e20746865206044820152681d1a1c995cda1bdb1960ba1b6064820152608401610232565b600080836080015183111561081e57610608856002611a65565b8460a0015111156106735760405162461bcd60e51b815260206004820152602f60248201527f54686520616d6f756e7420746861742063616e2062652072657061696420686160448201526e1cc81899595b88195e18d959591959608a1b6064820152608401610232565b6103e8610681603287611a65565b61068b91906119e4565b6002546001546040516341976e0960e01b81526001600160a01b03918216600482015292945016906341976e0990602401602060405180830381865afa1580156106d9573d6000803e3d6000fd5b505050506040513d601f19601f820116820180604052508101906106fd9190611a4c565b6107078387611a06565b61071990670de0b6b3a7640000611a65565b61072391906119e4565b905060006201518085602001514261073b91906119d1565b61074591906119e4565b90506107558560a00151826114e8565b60a086015284518290869061076b9083906119d1565b90525060a0850180518791906107829083906119d1565b905250426020860152608085015160408601516107a0908890611a06565b10156107bb578585604001516107b69190611a06565b6107c1565b84608001515b60408087019182526001600160a01b038a166000908152600360208181529290912088518155918801516001830155915160028201556060870151918101919091556080860151600482015560a086015160059091015550610a0f565b6103e8846080015160026108329190611a65565b61083e906101c2611a65565b61084891906119e4565b8510610892575082516001600160a01b0387166000908152600360208190526040822082815560018101839055600281018390559081018290556004810182905560050155610a0f565b6002546001546040516341976e0960e01b81526001600160a01b0391821660048201529116906341976e0990602401602060405180830381865afa1580156108de573d6000803e3d6000fd5b505050506040513d601f19601f820116820180604052508101906109029190611a4c565b61091486670de0b6b3a7640000611a65565b61091e91906119e4565b90506103e861092e603283611a65565b61093891906119e4565b91506109448282611a06565b9050808460000181815161095891906119d1565b90525060a08401805186919061096f9083906119d1565b9052504260208501526080840151604085015161098d908790611a06565b10156109a8578484604001516109a39190611a06565b6109ae565b83608001515b60408086019182526001600160a01b038916600090815260036020818152929091208751808255928801516001820155925160028401556060870151908301556080860151600483015560a0860151600590920191909155610a0f906115d5565b600054610a27906001600160a01b0316333088611564565b604051600090339083156108fc0290849084818181858888f19350505050905080610a8b5760405162461bcd60e51b81526020600482015260146024820152732330b4b632b2103a379039b2b7321022ba3432b960611b6044820152606401610232565b6001600160a01b038816600090815260036020818152604092839020835160c08101855281548082526001830154938201939093526002820154948101949094529182015460608401526004820154608084015260059091015460a0830152610af3906115d5565b600080516020611c3f8339815191528982600001518360200151846040015185606001518660a00151604051610b2e96959493929190611a19565b60405180910390a1505050505050505050565b60058181548110610b5157600080fd5b6000918252602090912001546001600160a01b0316905081565b6001600160a01b0382161580610b8e57506000546001600160a01b038381169116145b610bda5760405162461bcd60e51b815260206004820152601c60248201527f6f6e6c7920555344432c455448455220697320737570706f72746564000000006044820152606401610232565b3415610dca576002546001546040516341976e0960e01b81526001600160a01b039182166004820152600092670de0b6b3a76400009216906341976e0990602401602060405180830381865afa158015610c38573d6000803e3d6000fd5b505050506040513d601f19601f82011682018060405250810190610c5c9190611a4c565b610c669034611a65565b610c7091906119e4565b905060006040518060c00160405280348152602001600081526020016103e86101f485610c9d9190611a65565b610ca791906119e4565b81526020016103e8610cbb6102ee86611a65565b610cc591906119e4565b81526020016103e8610cd96101f486611a65565b610ce391906119e4565b815260006020918201819052338082526003808452604092839020855181558585015160018201558584015160028201556060860151918101919091556080850151600482015560a0850151600590910155815190815234928101929092529192507f38b5e246f65c3bca435cc3741f592a92a1e946b0d2d632c85c4dadc0003313ec910160405180910390a133600081815260036020819052604091829020805460018201546002830154938301546005909301549451600080516020611c3f83398151915296610dbc969095939492939291611a19565b60405180910390a150505050565b6000546001600160a01b0390811690831603610f075760008111610e305760405162461bcd60e51b815260206004820152601e60248201527f416d6f756e74206d7573742062652067726561746572207468616e20302000006044820152606401610232565b604080518082018252828152426020808301918252336000818152600490925293902082518155905160019091015590610e76906001600160a01b038516903085611564565b60408051338152602081018490527fe7440f6772025dec9be06ba934e6ee5289b73533ee2136ba668f6cb6ea3f56a8910160405180910390a1336000818152600460209081526040918290208054600190910154835194855291840152908201527fe624e43627b2789dda845b4c8213adecf35d1416a38bce72fb8ae9d77cbc8bed906060015b60405180910390a1505b5050565b6000546001600160a01b03838116911614610f385760405162461bcd60e51b81526004016102329061198b565b33600090815260036020818152604092839020835160c08101855281548082526001830154938201939093526002820154948101949094529182015460608401526004820154608084015260059091015460a0830152610fda5760405162461bcd60e51b815260206004820152601b60248201527f496e70757420796f757220636f6c6c61746572616c20666972737400000000006044820152606401610232565b81816040015110156110405760405162461bcd60e51b815260206004820152602960248201527f416d6f756e742067726561746572207468616e2074686520626f72726f7761626044820152681b1948185b5bdd5b9d60ba1b6064820152608401610232565b818160a0018181516110529190611a06565b9052506040810180518391906110699083906119d1565b90525042602080830191825233600081815260039283905260408082208651815594516001808701919091559086015160028601556060860151938501939093556080850151600485015560a085015160059485015583549283018455929092527f036b6384b5eca791c62761152d0c79bb0604c104a5fb6f4eb0703f3154bb3db00180546001600160a01b03191682179055611111906001600160a01b038516908461161d565b33600081815260036020819052604091829020805460018201546002830154938301546005909301549451600080516020611c3f83398151915296610efd969095939492939291611a19565b6000546001600160a01b038381169116148061118057506001600160a01b038216155b61119c5760405162461bcd60e51b81526004016102329061198b565b6000546001600160a01b03908116908316036113245733600090815260046020908152604091829020825180840190935280548084526001909101549183019190915261122b5760405162461bcd60e51b815260206004820152601860248201527f796f75206d757374206265206465706f736974207573646300000000000000006044820152606401610232565b60006201518082602001514261124191906119d1565b61124b91906119e4565b905061125b8260000151826114e8565b80835283900361128057336000908152600460205260408120818155600101556112bb565b4260208301528151839083906112979083906119d1565b90525033600090815260046020908152604090912083518155908301516001909101555b6000546112d2906001600160a01b0316338561161d565b336000818152600460209081526040918290208054600190910154835194855291840152908201527fe624e43627b2789dda845b4c8213adecf35d1416a38bce72fb8ae9d77cbc8bed90606001610dbc565b33600090815260036020818152604092839020835160c081018552815481526001820154928101929092526002810154938201939093529082015460608201526004820154608082015260059091015460a08201819052156113c85760405162461bcd60e51b815260206004820152601960248201527f596f75206469646e742072656465656d20636f6d706c657465000000000000006044820152606401610232565b805133600081815260036020819052604080832083815560018101849055600281018490559182018390556004820183905560059091018290555190919083908381818185875af1925050503d8060008114611440576040519150601f19603f3d011682016040523d82523d6000602084013e611445565b606091505b505090508061148d5760405162461bcd60e51b81526020600482015260146024820152732330b4b632b2103a379039b2b7321032ba3432b960611b6044820152606401610232565b33600081815260036020819052604091829020805460018201546002830154938301546005909301549451600080516020611c3f833981519152966114d9969095939492939291611a19565b60405180910390a15050505050565b60006114f6826103e8611b68565b611502836103e9611b68565b61150c9085611a65565b61151691906119e4565b90505b92915050565b610f078282604051602401611535929190611bc4565b60408051601f198184030181529190526020810180516001600160e01b03166309710a9d60e41b179052611652565b6040516001600160a01b03808516602483015283166044820152606481018290526115cf9085906323b872dd60e01b906084015b60408051601f198184030181529190526020810180516001600160e01b03166001600160e01b031990931692909217909152611673565b50505050565b61161a816040516024016115eb91815260200190565b60408051601f198184030181529190526020810180516001600160e01b031663f5b1bba960e01b179052611652565b50565b6040516001600160a01b03831660248201526044810182905261164d90849063a9059cbb60e01b90606401611598565b505050565b80516a636f6e736f6c652e6c6f67602083016000808483855afa5050505050565b60006116c8826040518060400160405280602081526020017f5361666545524332303a206c6f772d6c6576656c2063616c6c206661696c6564815250856001600160a01b03166117459092919063ffffffff16565b80519091501561164d57808060200190518101906116e69190611be6565b61164d5760405162461bcd60e51b815260206004820152602a60248201527f5361666545524332303a204552433230206f7065726174696f6e20646964206e6044820152691bdd081cdd58d8d9595960b21b6064820152608401610232565b6060611754848460008561175c565b949350505050565b6060824710156117bd5760405162461bcd60e51b815260206004820152602660248201527f416464726573733a20696e73756666696369656e742062616c616e636520666f6044820152651c8818d85b1b60d21b6064820152608401610232565b600080866001600160a01b031685876040516117d99190611c0f565b60006040518083038185875af1925050503d8060008114611816576040519150601f19603f3d011682016040523d82523d6000602084013e61181b565b606091505b509150915061182c87838387611837565b979650505050505050565b606083156118a657825160000361189f576001600160a01b0385163b61189f5760405162461bcd60e51b815260206004820152601d60248201527f416464726573733a2063616c6c20746f206e6f6e2d636f6e74726163740000006044820152606401610232565b5081611754565b61175483838151156118bb5781518083602001fd5b8060405162461bcd60e51b81526004016102329190611c2b565b80356001600160a01b03811681146118ec57600080fd5b919050565b6000806040838503121561190457600080fd5b61190d836118d5565b946020939093013593505050565b60008060006060848603121561193057600080fd5b611939846118d5565b9250611947602085016118d5565b9150604084013590509250925092565b60006020828403121561196957600080fd5b5035919050565b60006020828403121561198257600080fd5b611516826118d5565b60208082526016908201527513db9b1e481554d110c81a5cc81cdd5c1c1bdc9d195960521b604082015260600190565b634e487b7160e01b600052601160045260246000fd5b81810381811115611519576115196119bb565b600082611a0157634e487b7160e01b600052601260045260246000fd5b500490565b80820180821115611519576115196119bb565b6001600160a01b03969096168652602086019490945260408501929092526060840152608083015260a082015260c00190565b600060208284031215611a5e57600080fd5b5051919050565b6000816000190483118215151615611a7f57611a7f6119bb565b500290565b600181815b80851115611abf578160001904821115611aa557611aa56119bb565b80851615611ab257918102915b93841c9390800290611a89565b509250929050565b600082611ad657506001611519565b81611ae357506000611519565b8160018114611af95760028114611b0357611b1f565b6001915050611519565b60ff841115611b1457611b146119bb565b50506001821b611519565b5060208310610133831016604e8410600b8410161715611b42575081810a611519565b611b4c8383611a84565b8060001904821115611b6057611b606119bb565b029392505050565b60006115168383611ac7565b60005b83811015611b8f578181015183820152602001611b77565b50506000910152565b60008151808452611bb0816020860160208601611b74565b601f01601f19169290920160200192915050565b604081526000611bd76040830185611b98565b90508260208301529392505050565b600060208284031215611bf857600080fd5b81518015158114611c0857600080fd5b9392505050565b60008251611c21818460208701611b74565b9190910192915050565b6020815260006115166020830184611b9856fe0468858ec7fe24c8494e80fa67fb621b3d98281d679063334bde99f2cbfe1501a26469706673582212200f2da74eeef33b4b1d83bc27bf5534f61cfeeffc97ec77337132cab07c52094b64736f6c63430008100033",
    "linkReferences": {}
  },
  "methodIdentifiers": {
    "borrow(address,uint256)": "4b8a3529",
    "borrowerAddressList(uint256)": "37908858",
    "borrowers(address)": "bf5d50c4",
    "deposit(address,uint256)": "47e7ef24",
    "depositors(address)": "eed75f6d",
    "liquidate(address,address,uint256)": "26c01303",
    "repay(address,uint256)": "22867d78",
    "withdraw(address,uint256)": "f3fef3a3"
  },
  "id": 15
}