{
  "abi": [
    {
      "inputs": [
        {
          "internalType": "contract IPriceOracle",
          "name": "oracle",
          "type": "address"
        },
        {
          "internalType": "address",
          "name": "token",
          "type": "address"
        }
      ],
      "stateMutability": "nonpayable",
      "type": "constructor"
    },
    {
      "anonymous": false,
      "inputs": [
        {
          "indexed": false,
          "internalType": "address",
          "name": "borrowerAddr",
          "type": "address"
        },
        {
          "indexed": false,
          "internalType": "uint256",
          "name": "ethAmount",
          "type": "uint256"
        },
        {
          "indexed": false,
          "internalType": "uint256",
          "name": "time",
          "type": "uint256"
        },
        {
          "indexed": false,
          "internalType": "uint256",
          "name": "borrowableAmount",
          "type": "uint256"
        },
        {
          "indexed": false,
          "internalType": "uint256",
          "name": "threshold",
          "type": "uint256"
        },
        {
          "indexed": false,
          "internalType": "uint256",
          "name": "borrowedAmount",
          "type": "uint256"
        }
      ],
      "name": "BorrowerInfo",
      "type": "event"
    },
    {
      "anonymous": false,
      "inputs": [
        {
          "indexed": false,
          "internalType": "address",
          "name": "from",
          "type": "address"
        },
        {
          "indexed": false,
          "internalType": "uint256",
          "name": "amount",
          "type": "uint256"
        }
      ],
      "name": "DepositETHER",
      "type": "event"
    },
    {
      "anonymous": false,
      "inputs": [
        {
          "indexed": false,
          "internalType": "address",
          "name": "from",
          "type": "address"
        },
        {
          "indexed": false,
          "internalType": "uint256",
          "name": "amount",
          "type": "uint256"
        }
      ],
      "name": "DepositUSDC",
      "type": "event"
    },
    {
      "anonymous": false,
      "inputs": [
        {
          "indexed": false,
          "internalType": "address",
          "name": "depositorAddr",
          "type": "address"
        },
        {
          "indexed": false,
          "internalType": "uint256",
          "name": "usdcAmount",
          "type": "uint256"
        },
        {
          "indexed": false,
          "internalType": "uint256",
          "name": "time",
          "type": "uint256"
        }
      ],
      "name": "DepositorInfo",
      "type": "event"
    },
    {
      "inputs": [
        {
          "internalType": "address",
          "name": "tokenAddress",
          "type": "address"
        },
        {
          "internalType": "uint256",
          "name": "amount",
          "type": "uint256"
        }
      ],
      "name": "borrow",
      "outputs": [],
      "stateMutability": "nonpayable",
      "type": "function"
    },
    {
      "inputs": [
        {
          "internalType": "address",
          "name": "",
          "type": "address"
        }
      ],
      "name": "borrowers",
      "outputs": [
        {
          "internalType": "uint256",
          "name": "ethAmount",
          "type": "uint256"
        },
        {
          "internalType": "uint256",
          "name": "time",
          "type": "uint256"
        },
        {
          "internalType": "uint256",
          "name": "borrowableAmount",
          "type": "uint256"
        },
        {
          "internalType": "uint256",
          "name": "thresholdAmount",
          "type": "uint256"
        },
        {
          "internalType": "uint256",
          "name": "limitThresholdAmount",
          "type": "uint256"
        },
        {
          "internalType": "uint256",
          "name": "borrowedAmount",
          "type": "uint256"
        }
      ],
      "stateMutability": "view",
      "type": "function"
    },
    {
      "inputs": [
        {
          "internalType": "address",
          "name": "tokenAddress",
          "type": "address"
        },
        {
          "internalType": "uint256",
          "name": "amount",
          "type": "uint256"
        }
      ],
      "name": "deposit",
      "outputs": [],
      "stateMutability": "payable",
      "type": "function"
    },
    {
      "inputs": [
        {
          "internalType": "address",
          "name": "",
          "type": "address"
        }
      ],
      "name": "depositors",
      "outputs": [
        {
          "internalType": "uint256",
          "name": "usdcAmount",
          "type": "uint256"
        },
        {
          "internalType": "uint256",
          "name": "time",
          "type": "uint256"
        }
      ],
      "stateMutability": "view",
      "type": "function"
    },
    {
      "inputs": [
        {
          "internalType": "address",
          "name": "token",
          "type": "address"
        }
      ],
      "name": "getAccruedSupplyAmount",
      "outputs": [
        {
          "internalType": "uint256",
          "name": "",
          "type": "uint256"
        }
      ],
      "stateMutability": "nonpayable",
      "type": "function"
    },
    {
      "inputs": [],
      "name": "getBorrowedAmount",
      "outputs": [
        {
          "internalType": "uint256",
          "name": "amount",
          "type": "uint256"
        }
      ],
      "stateMutability": "view",
      "type": "function"
    },
    {
      "inputs": [],
      "name": "getCollateral",
      "outputs": [
        {
          "internalType": "uint256",
          "name": "amount",
          "type": "uint256"
        }
      ],
      "stateMutability": "view",
      "type": "function"
    },
    {
      "inputs": [
        {
          "internalType": "address",
          "name": "token",
          "type": "address"
        }
      ],
      "name": "initializeLendingProtocol",
      "outputs": [],
      "stateMutability": "payable",
      "type": "function"
    },
    {
      "inputs": [
        {
          "internalType": "address",
          "name": "user",
          "type": "address"
        },
        {
          "internalType": "address",
          "name": "tokenAddress",
          "type": "address"
        },
        {
          "internalType": "uint256",
          "name": "amount",
          "type": "uint256"
        }
      ],
      "name": "liquidate",
      "outputs": [],
      "stateMutability": "payable",
      "type": "function"
    },
    {
      "inputs": [
        {
          "internalType": "address",
          "name": "tokenAddress",
          "type": "address"
        },
        {
          "internalType": "uint256",
          "name": "amount",
          "type": "uint256"
        }
      ],
      "name": "repay",
      "outputs": [],
      "stateMutability": "nonpayable",
      "type": "function"
    },
    {
      "inputs": [
        {
          "internalType": "address",
          "name": "tokenAddress",
          "type": "address"
        },
        {
          "internalType": "uint256",
          "name": "amount",
          "type": "uint256"
        }
      ],
      "name": "withdraw",
      "outputs": [],
      "stateMutability": "payable",
      "type": "function"
    }
  ],
  "bytecode": {
    "object": "0x6080604052600180546001600160a01b03191690553480156200002157600080fd5b5060405162001ef338038062001ef3833981016040819052620000449162000092565b600080546001600160a01b039283166001600160a01b03199182161790915560028054939092169216919091179055620000d1565b6001600160a01b03811681146200008f57600080fd5b50565b60008060408385031215620000a657600080fd5b8251620000b38162000079565b6020840151909250620000c68162000079565b809150509250929050565b611e1280620000e16000396000f3fe60806040526004361061009c5760003560e01c80635c1548fb116100645780635c1548fb1461013d5780638f1e97791461015f578063bf5d50c414610172578063d6dc867a146101f6578063eed75f6d1461021b578063f3fef3a31461026457600080fd5b806322867d78146100a157806326c01303146100c357806347e7ef24146100d65780634b8a3529146100e957806353415e4414610109575b600080fd5b3480156100ad57600080fd5b506100c16100bc366004611aa5565b610277565b005b6100c16100d1366004611acf565b61045a565b6100c16100e4366004611aa5565b610b78565b3480156100f557600080fd5b506100c1610104366004611aa5565b611160565b34801561011557600080fd5b5061012a610124366004611b0b565b50600190565b6040519081526020015b60405180910390f35b34801561014957600080fd5b503360009081526003602052604090205461012a565b6100c161016d366004611b0b565b611374565b34801561017e57600080fd5b506101c961018d366004611b0b565b60036020528060005260406000206000915090508060000154908060010154908060020154908060030154908060040154908060050154905086565b604080519687526020870195909552938501929092526060840152608083015260a082015260c001610134565b34801561020257600080fd5b503360009081526003602052604090206002015461012a565b34801561022757600080fd5b5061024f610236366004611b0b565b6004602052600090815260409020805460019091015482565b60408051928352602083019190915201610134565b6100c1610272366004611aa5565b6113ea565b6000546001600160a01b038381169116146102ad5760405162461bcd60e51b81526004016102a490611b26565b60405180910390fd5b336000908152600360208181526040808420815160c0810183528154815260018201549381018490526002820154928101929092529283015460608201526004830154608082015260059092015460a083015290919062015180906103129042611b6c565b61031c9190611b83565b9050600061032e8360a001518361174a565b60a0840151909150600090610343818561174a565b61034d9190611b6c565b9050600061035b8287611b6c565b9050858311156103965761036f8684611b6c565b60a0860152604085018051829190610388908390611ba5565b9052504260208601526103c2565b600060a08601819052602086018190526040860180516103b7908390611ba5565b905250600060608601525b6103d76001600160a01b038816333089611781565b336000818152600360208181526040928390208951808255918a015160018201819055848b01516002830181905560608c015194830185905560808c0151600484015560a08c015160059093018390559451600080516020611dbd833981519152966104499690959293909291611bbd565b60405180910390a150505050505050565b6000546001600160a01b038381169116146104875760405162461bcd60e51b81526004016102a490611b26565b6001600160a01b0383166000908152600360205260409020546104ec5760405162461bcd60e51b815260206004820152601b60248201527f746869732075736572206973206e6f74206170706c696361626c65000000000060448201526064016102a4565b6001600160a01b038381166000908152600360208181526040808420815160c081018352815481526001808301549482019490945260028083015482850152948201546060820152600480830154608083015260059092015460a08201529354925491516341976e0960e01b8152918616908201529193670de0b6b3a7640000929116906341976e0990602401602060405180830381865afa158015610596573d6000803e3d6000fd5b505050506040513d601f19601f820116820180604052508101906105ba9190611bf0565b83516105c69190611c09565b6105d09190611b83565b905081606001518111156106265760405162461bcd60e51b815260206004820152601e60248201527f54686520707269636520686173206e6f74206265656e2072656163686564000060448201526064016102a4565b600080836080015183111561085657610640856002611c09565b8460a0015111156106ab5760405162461bcd60e51b815260206004820152602f60248201527f54686520616d6f756e7420746861742063616e2062652072657061696420686160448201526e1cc81899595b88195e18d959591959608a1b60648201526084016102a4565b6103e86106b9603287611c09565b6106c39190611b83565b6002546001546040516341976e0960e01b81526001600160a01b03918216600482015292945016906341976e0990602401602060405180830381865afa158015610711573d6000803e3d6000fd5b505050506040513d601f19601f820116820180604052508101906107359190611bf0565b61073f8387611ba5565b61075190670de0b6b3a7640000611c09565b61075b9190611b83565b90506000620151808560200151426107739190611b6c565b61077d9190611b83565b905061078d8560a001518261174a565b60a08601528451829086906107a3908390611b6c565b90525060a0850180518791906107ba908390611b6c565b905250426020860152608085015160408601516107d8908890611ba5565b10156107f3578585604001516107ee9190611ba5565b6107f9565b84608001515b60408087019182526001600160a01b038a166000908152600360208181529290912088518155918801516001830155915160028201556060870151918101919091556080860151600482015560a086015160059091015550610a3e565b6103e88460800151600261086a9190611c09565b610876906101c2611c09565b6108809190611b83565b85106108ca575082516001600160a01b0387166000908152600360208190526040822082815560018101839055600281018390559081018290556004810182905560050155610a3e565b6002546001546040516341976e0960e01b81526001600160a01b0391821660048201529116906341976e0990602401602060405180830381865afa158015610916573d6000803e3d6000fd5b505050506040513d601f19601f8201168201806040525081019061093a9190611bf0565b61094c86670de0b6b3a7640000611c09565b6109569190611b83565b90506103e8610966603283611c09565b6109709190611b83565b915061097c8282611ba5565b905080846000018181516109909190611b6c565b90525060a0840180518691906109a7908390611b6c565b905250426020850152608084015160408501516109c5908790611ba5565b10156109e0578484604001516109db9190611ba5565b6109e6565b83608001515b60408086019182526001600160a01b0389166000908152600360208181529290912087518155918701516001830155915160028201556060860151918101919091556080850151600482015560a08501516005909101555b600054610a56906001600160a01b0316333088611781565b604051600090339083156108fc0290849084818181858888f19350505050905080610aba5760405162461bcd60e51b81526020600482015260146024820152732330b4b632b2103a379039b2b7321022ba3432b960611b60448201526064016102a4565b6000600360008a6001600160a01b03166001600160a01b031681526020019081526020016000206040518060c001604052908160008201548152602001600182015481526020016002820154815260200160038201548152602001600482015481526020016005820154815250509050600080516020611dbd8339815191528982600001518360200151846040015185606001518660a00151604051610b6596959493929190611bbd565b60405180910390a1505050505050505050565b6001600160a01b0382161580610b9b57506000546001600160a01b038381169116145b610be75760405162461bcd60e51b815260206004820152601c60248201527f6f6e6c7920555344432c455448455220697320737570706f727465640000000060448201526064016102a4565b6001600160a01b038216610c7a5760003411610c385760405162461bcd60e51b815260206004820152601060248201526f0446f206e6f74206465706f73697420360841b60448201526064016102a4565b348114610c7a5760405162461bcd60e51b815260206004820152601060248201526f1b9bdd08195c5d585b08185b5bdd5b9d60821b60448201526064016102a4565b3415610fab576002546001546040516341976e0960e01b81526001600160a01b039182166004820152600092670de0b6b3a76400009216906341976e0990602401602060405180830381865afa158015610cd8573d6000803e3d6000fd5b505050506040513d601f19601f82011682018060405250810190610cfc9190611bf0565b610d069034611c09565b610d109190611b83565b9050610d4b6040518060c001604052806000815260200160008152602001600081526020016000815260200160008152602001600081525090565b336000908152600360205260408120549003610dde576040805160c081018252348152600060208201529081016103e8610d876101f486611c09565b610d919190611b83565b81526020016103e8610da56102ee86611c09565b610daf9190611b83565b81526020016103e8610dc36101f486611c09565b610dcd9190611b83565b815260200160008152509050610ecf565b5033600090815260036020818152604092839020835160c08101855281548082526001830154938201939093526002820154948101949094529182015460608401526004820154608084015260059091015460a083015234908290610e44908390611ba5565b9052506103e8610e566101f484611c09565b610e609190611b83565b81604001818151610e719190611ba5565b9052506103e8610e836102ee84611c09565b610e8d9190611b83565b81606001818151610e9e9190611ba5565b9052506103e8610eb06101f484611c09565b610eba9190611b83565b81608001818151610ecb9190611ba5565b9052505b33600081815260036020818152604092839020855181558582015160018201558584015160028201556060860151928101929092556080850151600483015560a0850151600590920191909155815192835234908301527f38b5e246f65c3bca435cc3741f592a92a1e946b0d2d632c85c4dadc0003313ec910160405180910390a133600081815260036020819052604091829020805460018201546002830154938301546005909301549451600080516020611dbd83398151915296610f9d969095939492939291611bbd565b60405180910390a150505050565b6000546001600160a01b039081169083160361115c57600081116110115760405162461bcd60e51b815260206004820152601e60248201527f416d6f756e74206d7573742062652067726561746572207468616e203020000060448201526064016102a4565b6040805180820190915260008082526020820152336000908152600460205260408120549003611054575060408051808201909152818152426020820152611095565b5033600090815260046020908152604091829020825180840190935280548084526001909101549183019190915282908290611091908390611ba5565b9052505b33600081815260046020908152604090912083518155908301516001909101556110cb906001600160a01b038516903085611781565b60408051338152602081018490527fe7440f6772025dec9be06ba934e6ee5289b73533ee2136ba668f6cb6ea3f56a8910160405180910390a1336000818152600460209081526040918290208054600190910154835194855291840152908201527fe624e43627b2789dda845b4c8213adecf35d1416a38bce72fb8ae9d77cbc8bed906060015b60405180910390a1505b5050565b6000546001600160a01b0383811691161461118d5760405162461bcd60e51b81526004016102a490611b26565b33600090815260036020818152604092839020835160c08101855281548082526001830154938201939093526002820154948101949094529182015460608401526004820154608084015260059091015460a083015261122f5760405162461bcd60e51b815260206004820152601b60248201527f496e70757420796f757220636f6c6c61746572616c206669727374000000000060448201526064016102a4565b81816040015110156112955760405162461bcd60e51b815260206004820152602960248201527f416d6f756e742067726561746572207468616e2074686520626f72726f7761626044820152681b1948185b5bdd5b9d60ba1b60648201526084016102a4565b818160a0018181516112a79190611ba5565b9052506040810180518391906112be908390611b6c565b905250426020808301918252336000818152600392839052604090819020855181559351600185015584015160028401556060840151918301919091556080830151600483015560a0830151600590920191909155611328906001600160a01b03851690846117f2565b33600081815260036020819052604091829020805460018201546002830154938301546005909301549451600080516020611dbd83398151915296611152969095939492939291611bbd565b6040516323b872dd60e01b81523360048201523060248201523460448201526001600160a01b038216906323b872dd906064016020604051808303816000875af11580156113c6573d6000803e3d6000fd5b505050506040513d601f19601f8201168201806040525081019061115c9190611c28565b6000546001600160a01b038381169116148061140d57506001600160a01b038216155b6114295760405162461bcd60e51b81526004016102a490611b26565b6000546001600160a01b03908116908316036115b1573360009081526004602090815260409182902082518084019093528054808452600190910154918301919091526114b85760405162461bcd60e51b815260206004820152601860248201527f796f75206d757374206265206465706f7369742075736463000000000000000060448201526064016102a4565b6000620151808260200151426114ce9190611b6c565b6114d89190611b83565b90506114e882600001518261174a565b80835283900361150d5733600090815260046020526040812081815560010155611548565b426020830152815183908390611524908390611b6c565b90525033600090815260046020908152604090912083518155908301516001909101555b60005461155f906001600160a01b031633856117f2565b336000818152600460209081526040918290208054600190910154835194855291840152908201527fe624e43627b2789dda845b4c8213adecf35d1416a38bce72fb8ae9d77cbc8bed90606001610f9d565b33600090815260036020818152604092839020835160c081018552815481526001820154928101929092526002810154938201939093529082015460608201526004820154608082015260059091015460a08201819052156116555760405162461bcd60e51b815260206004820152601960248201527f596f75206469646e742072656465656d20636f6d706c6574650000000000000060448201526064016102a4565b805133600081815260036020819052604080832083815560018101849055600281018490559182018390556004820183905560059091018290555190919083156108fc0290849084818181858888f193505050509050806116ef5760405162461bcd60e51b81526020600482015260146024820152732330b4b632b2103a379039b2b7321032ba3432b960611b60448201526064016102a4565b33600081815260036020819052604091829020805460018201546002830154938301546005909301549451600080516020611dbd8339815191529661173b969095939492939291611bbd565b60405180910390a15050505050565b6000611758826103e8611d35565b611764836103e9611d35565b61176e9085611c09565b6117789190611b83565b90505b92915050565b6040516001600160a01b03808516602483015283166044820152606481018290526117ec9085906323b872dd60e01b906084015b60408051601f198184030181529190526020810180516001600160e01b03166001600160e01b031990931692909217909152611827565b50505050565b6040516001600160a01b03831660248201526044810182905261182290849063a9059cbb60e01b906064016117b5565b505050565b600061187c826040518060400160405280602081526020017f5361666545524332303a206c6f772d6c6576656c2063616c6c206661696c6564815250856001600160a01b03166118f99092919063ffffffff16565b805190915015611822578080602001905181019061189a9190611c28565b6118225760405162461bcd60e51b815260206004820152602a60248201527f5361666545524332303a204552433230206f7065726174696f6e20646964206e6044820152691bdd081cdd58d8d9595960b21b60648201526084016102a4565b60606119088484600085611910565b949350505050565b6060824710156119715760405162461bcd60e51b815260206004820152602660248201527f416464726573733a20696e73756666696369656e742062616c616e636520666f6044820152651c8818d85b1b60d21b60648201526084016102a4565b600080866001600160a01b0316858760405161198d9190611d6d565b60006040518083038185875af1925050503d80600081146119ca576040519150601f19603f3d011682016040523d82523d6000602084013e6119cf565b606091505b50915091506119e0878383876119eb565b979650505050505050565b60608315611a5a578251600003611a53576001600160a01b0385163b611a535760405162461bcd60e51b815260206004820152601d60248201527f416464726573733a2063616c6c20746f206e6f6e2d636f6e747261637400000060448201526064016102a4565b5081611908565b6119088383815115611a6f5781518083602001fd5b8060405162461bcd60e51b81526004016102a49190611d89565b80356001600160a01b0381168114611aa057600080fd5b919050565b60008060408385031215611ab857600080fd5b611ac183611a89565b946020939093013593505050565b600080600060608486031215611ae457600080fd5b611aed84611a89565b9250611afb60208501611a89565b9150604084013590509250925092565b600060208284031215611b1d57600080fd5b61177882611a89565b60208082526016908201527513db9b1e481554d110c81a5cc81cdd5c1c1bdc9d195960521b604082015260600190565b634e487b7160e01b600052601160045260246000fd5b600082821015611b7e57611b7e611b56565b500390565b600082611ba057634e487b7160e01b600052601260045260246000fd5b500490565b60008219821115611bb857611bb8611b56565b500190565b6001600160a01b03969096168652602086019490945260408501929092526060840152608083015260a082015260c00190565b600060208284031215611c0257600080fd5b5051919050565b6000816000190483118215151615611c2357611c23611b56565b500290565b600060208284031215611c3a57600080fd5b81518015158114611c4a57600080fd5b9392505050565b600181815b80851115611c8c578160001904821115611c7257611c72611b56565b80851615611c7f57918102915b93841c9390800290611c56565b509250929050565b600082611ca35750600161177b565b81611cb05750600061177b565b8160018114611cc65760028114611cd057611cec565b600191505061177b565b60ff841115611ce157611ce1611b56565b50506001821b61177b565b5060208310610133831016604e8410600b8410161715611d0f575081810a61177b565b611d198383611c51565b8060001904821115611d2d57611d2d611b56565b029392505050565b60006117788383611c94565b60005b83811015611d5c578181015183820152602001611d44565b838111156117ec5750506000910152565b60008251611d7f818460208701611d41565b9190910192915050565b6020815260008251806020840152611da8816040850160208701611d41565b601f01601f1916919091016040019291505056fe0468858ec7fe24c8494e80fa67fb621b3d98281d679063334bde99f2cbfe1501a26469706673582212204897cb04b81e07b8009050e4d3427d1cadfa172ad7386b4e27f8bb25466866cf64736f6c634300080d0033",
    "linkReferences": {}
  },
  "methodIdentifiers": {
    "borrow(address,uint256)": "4b8a3529",
    "borrowers(address)": "bf5d50c4",
    "deposit(address,uint256)": "47e7ef24",
    "depositors(address)": "eed75f6d",
    "getAccruedSupplyAmount(address)": "53415e44",
    "getBorrowedAmount()": "d6dc867a",
    "getCollateral()": "5c1548fb",
    "initializeLendingProtocol(address)": "8f1e9779",
    "liquidate(address,address,uint256)": "26c01303",
    "repay(address,uint256)": "22867d78",
    "withdraw(address,uint256)": "f3fef3a3"
  },
  "id": 14
}