{
  "abi": [
    {
      "inputs": [
        {
          "internalType": "contract IPriceOracle",
          "name": "aOracle",
          "type": "address"
        },
        {
          "internalType": "address",
          "name": "aToken",
          "type": "address"
        }
      ],
      "stateMutability": "nonpayable",
      "type": "constructor"
    },
    {
      "inputs": [
        {
          "internalType": "address",
          "name": "aToken",
          "type": "address"
        },
        {
          "internalType": "uint256",
          "name": "aAmount",
          "type": "uint256"
        }
      ],
      "name": "borrow",
      "outputs": [],
      "stateMutability": "nonpayable",
      "type": "function"
    },
    {
      "inputs": [
        {
          "internalType": "address",
          "name": "",
          "type": "address"
        }
      ],
      "name": "borrowers",
      "outputs": [
        {
          "internalType": "uint256",
          "name": "sCollAmount",
          "type": "uint256"
        },
        {
          "internalType": "uint256",
          "name": "sBorrowedAmount",
          "type": "uint256"
        },
        {
          "internalType": "uint256",
          "name": "sBlockNum",
          "type": "uint256"
        }
      ],
      "stateMutability": "view",
      "type": "function"
    },
    {
      "inputs": [
        {
          "internalType": "address",
          "name": "aToken",
          "type": "address"
        },
        {
          "internalType": "uint256",
          "name": "aAmount",
          "type": "uint256"
        }
      ],
      "name": "deposit",
      "outputs": [],
      "stateMutability": "payable",
      "type": "function"
    },
    {
      "inputs": [
        {
          "internalType": "address",
          "name": "",
          "type": "address"
        }
      ],
      "name": "depositors",
      "outputs": [
        {
          "internalType": "uint256",
          "name": "sStakingAmount",
          "type": "uint256"
        },
        {
          "internalType": "uint256",
          "name": "sPreFee",
          "type": "uint256"
        },
        {
          "internalType": "uint256",
          "name": "sProfit",
          "type": "uint256"
        }
      ],
      "stateMutability": "view",
      "type": "function"
    },
    {
      "inputs": [
        {
          "internalType": "address",
          "name": "aToken",
          "type": "address"
        }
      ],
      "name": "getAccruedSupplyAmount",
      "outputs": [
        {
          "internalType": "uint256",
          "name": "",
          "type": "uint256"
        }
      ],
      "stateMutability": "nonpayable",
      "type": "function"
    },
    {
      "inputs": [
        {
          "internalType": "address",
          "name": "aToken",
          "type": "address"
        }
      ],
      "name": "initializeLendingProtocol",
      "outputs": [],
      "stateMutability": "payable",
      "type": "function"
    },
    {
      "inputs": [
        {
          "internalType": "address",
          "name": "aUser",
          "type": "address"
        },
        {
          "internalType": "address",
          "name": "aTokenAddress",
          "type": "address"
        },
        {
          "internalType": "uint256",
          "name": "aAmount",
          "type": "uint256"
        }
      ],
      "name": "liquidate",
      "outputs": [],
      "stateMutability": "payable",
      "type": "function"
    },
    {
      "inputs": [],
      "name": "oracle",
      "outputs": [
        {
          "internalType": "contract IPriceOracle",
          "name": "",
          "type": "address"
        }
      ],
      "stateMutability": "view",
      "type": "function"
    },
    {
      "inputs": [],
      "name": "preFee",
      "outputs": [
        {
          "internalType": "uint256",
          "name": "",
          "type": "uint256"
        }
      ],
      "stateMutability": "view",
      "type": "function"
    },
    {
      "inputs": [
        {
          "internalType": "address",
          "name": "aToken",
          "type": "address"
        },
        {
          "internalType": "uint256",
          "name": "aAmount",
          "type": "uint256"
        }
      ],
      "name": "repay",
      "outputs": [],
      "stateMutability": "nonpayable",
      "type": "function"
    },
    {
      "inputs": [],
      "name": "token0",
      "outputs": [
        {
          "internalType": "address",
          "name": "",
          "type": "address"
        }
      ],
      "stateMutability": "view",
      "type": "function"
    },
    {
      "inputs": [],
      "name": "token1",
      "outputs": [
        {
          "internalType": "address",
          "name": "",
          "type": "address"
        }
      ],
      "stateMutability": "view",
      "type": "function"
    },
    {
      "inputs": [],
      "name": "totalToken0",
      "outputs": [
        {
          "internalType": "uint256",
          "name": "",
          "type": "uint256"
        }
      ],
      "stateMutability": "view",
      "type": "function"
    },
    {
      "inputs": [],
      "name": "totalToken1",
      "outputs": [
        {
          "internalType": "uint256",
          "name": "",
          "type": "uint256"
        }
      ],
      "stateMutability": "view",
      "type": "function"
    },
    {
      "inputs": [
        {
          "internalType": "address",
          "name": "aToken",
          "type": "address"
        },
        {
          "internalType": "uint256",
          "name": "aAmount",
          "type": "uint256"
        }
      ],
      "name": "withdraw",
      "outputs": [],
      "stateMutability": "payable",
      "type": "function"
    }
  ],
  "bytecode": {
    "object": "0x60806040523480156200001157600080fd5b5060405162001c8038038062001c8083398101604081905262000034916200008b565b600080546001600160a01b0319908116909155600180546001600160a01b0393841690831617905560058054939092169216919091179055620000ca565b6001600160a01b03811681146200008857600080fd5b50565b600080604083850312156200009f57600080fd5b8251620000ac8162000072565b6020840151909250620000bf8162000072565b809150509250929050565b611ba680620000da6000396000f3fe6080604052600436106100e85760003560e01c80637dc0d1d01161008a578063d21220a711610059578063d21220a714610276578063d7158cd414610296578063eed75f6d146102ac578063f3fef3a3146102e857600080fd5b80637dc0d1d0146101d657806380abfda8146101f65780638f1e97791461020c578063bf5d50c41461021f57600080fd5b806326c01303116100c657806326c013031461017057806347e7ef24146101835780634b8a35291461019657806353415e44146101b657600080fd5b80630dfe1681146100ed57806311e707851461012a57806322867d781461014e575b600080fd5b3480156100f957600080fd5b5060005461010d906001600160a01b031681565b6040516001600160a01b0390911681526020015b60405180910390f35b34801561013657600080fd5b5061014060045481565b604051908152602001610121565b34801561015a57600080fd5b5061016e610169366004611924565b6102fb565b005b61016e61017e36600461194e565b6103ce565b61016e610191366004611924565b6106d5565b3480156101a257600080fd5b5061016e6101b1366004611924565b6108a9565b3480156101c257600080fd5b506101406101d136600461198a565b610b2b565b3480156101e257600080fd5b5060055461010d906001600160a01b031681565b34801561020257600080fd5b5061014060035481565b61016e61021a36600461198a565b610e00565b34801561022b57600080fd5b5061025b61023a36600461198a565b60066020526000908152604090208054600182015460029092015490919083565b60408051938452602084019290925290820152606001610121565b34801561028257600080fd5b5060015461010d906001600160a01b031681565b3480156102a257600080fd5b5061014060025481565b3480156102b857600080fd5b5061025b6102c736600461198a565b60076020526000908152604090208054600182015460029092015490919083565b61016e6102f6366004611924565b610eaa565b3360008181526006602090815260409182902082516060810184528154815260018201549281019290925260020154918101919091529061033c9043611185565b60208201819052820361035c576000602082018190526040820152610372565b818160200181815161036e91906119bb565b9052505b33600090815260066020908152604080832084518155918401516001830155830151600290910155600380548492906103ac9084906119d2565b90915550506001546103c9906001600160a01b03163330856111ed565b505050565b6001546001600160a01b0383811691161461041c5760405162461bcd60e51b81526020600482015260096024820152684c697175696461746560b81b60448201526064015b60405180910390fd5b600554600080546040516341976e0960e01b81526001600160a01b039182166004820152919216906341976e0990602401602060405180830381865afa15801561046a573d6000803e3d6000fd5b505050506040513d601f19601f8201168201806040525081019061048e91906119ea565b6005546001546040516341976e0960e01b81526001600160a01b0391821660048201529293506000929116906341976e0990602401602060405180830381865afa1580156104e0573d6000803e3d6000fd5b505050506040513d601f19601f8201168201806040525081019061050491906119ea565b6001600160a01b03861660009081526006602090815260408083208151606081018352815481526001820154938101849052600290910154918101919091529293508490610553908590611a03565b61055d9190611a38565b82516103e890610570906102ee90611a03565b61057a9190611a38565b6105849190611a38565b9050600181106105cb5760405162461bcd60e51b8152602060048201526012602482015271098d2e2ead2c8c2e8ca40744090cac2d8e8d60731b6044820152606401610413565b6103e8826020015160fa6105df9190611a03565b6105e99190611a38565b85111561062a5760405162461bcd60e51b815260206004820152600f60248201526e4c6971756964617465203a2032352560881b6044820152606401610413565b6000846106378588611a03565b6106419190611a38565b9050858360200181815161065591906119bb565b9052508251819084906106699083906119bb565b9052506001600160a01b0388166000908152600660209081526040808320865181559186015160018301558086015160029092019190915551339183156108fc02918491818181858888f193505050501580156106ca573d6000803e3d6000fd5b505050505050505050565b6000546001600160a01b03838116911614806106fe57506001546001600160a01b038381169116145b61073c5760405162461bcd60e51b815260206004820152600f60248201526e2232b837b9b4ba101d1022b93937b960891b6044820152606401610413565b6000546001600160a01b03908116908316036107fa573481146107b75760405162461bcd60e51b815260206004820152602d60248201527f4445504f5349543a20446f6573206e6f74206d617463682061416d6f756e742060448201526c616e64206d73672e76616c756560981b6064820152608401610413565b33600090815260066020526040812080548392906107d69084906119d2565b9250508190555080600260008282546107ef91906119d2565b909155506108a59050565b6001546001600160a01b03908116908316036108a557600154610828906001600160a01b03163330846111ed565b33600090815260076020526040812080548392906108479084906119d2565b90915550506009805460018101825560009182527f6e1540171b6c0c960b71a7020d9f60077f6af931a8bbf590da0223dacf75c7af0180546001600160a01b031916331790556003805483929061089f9084906119d2565b90915550505b5050565b3360009081526006602090815260408083208151606081018352815481526001820154938101939093526002015482820152600554835491516341976e0960e01b81526001600160a01b0392831660048201529293929116906341976e0990602401602060405180830381865afa158015610928573d6000803e3d6000fd5b505050506040513d601f19601f8201168201806040525081019061094c91906119ea565b6005546001546040516341976e0960e01b81526001600160a01b0391821660048201529293506000929116906341976e0990602401602060405180830381865afa15801561099e573d6000803e3d6000fd5b505050506040513d601f19601f820116820180604052508101906109c291906119ea565b9050600060028385600001516109d89190611a03565b6109e29190611a38565b90506109ee3343611185565b602085018190526109ff90866119d2565b610a099083611a03565b811015610a635760405162461bcd60e51b815260206004820152602260248201527f426f72726f773a20616d6f756e742069732067726561746572207468616e206c6044820152613a3b60f11b6064820152608401610413565b8360200151600003610ab857600880546001810182556000919091527ff3f7a9fe364faab93b216da50a3214154f22a0a2b415b23a84c8169e8b636ee30180546001600160a01b031916331790554360408501525b8484602001818151610aca91906119d2565b9052503360009081526006602090815260408083208751815591870151600183015586015160029091015560038054879290610b079084906119bb565b9091555050600154610b23906001600160a01b03163387611258565b505050505050565b600880546040805160208084028201810190925282815260009384938493830182828015610b8257602002820191906000526020600020905b81546001600160a01b03168152600190910190602001808311610b64575b5050505050905060006009805480602002602001604051908101604052809291908181526020018280548015610be157602002820191906000526020600020905b81546001600160a01b03168152600190910190602001808311610bc3575b5050505050905060005b8251811015610c86576000610c19848381518110610c0b57610c0b611a4c565b602002602001015143611185565b905060066000858481518110610c3157610c31611a4c565b60200260200101516001600160a01b03166001600160a01b031681526020019081526020016000206001015481610c6891906119bb565b610c7290866119d2565b94505080610c7f90611a62565b9050610beb565b5060005b8151811015610dd057600060035460076000858581518110610cae57610cae611a4c565b60200260200101516001600160a01b03166001600160a01b031681526020019081526020016000206000015460045487610ce891906119bb565b610cf29190611a03565b610cfc9190611a38565b90508060076000858581518110610d1557610d15611a4c565b60200260200101516001600160a01b03166001600160a01b031681526020019081526020016000206002016000828254610d4f91906119d2565b92505081905550610dbf604051806040016040528060068152602001651c1c9bd99a5d60d21b81525060076000868681518110610d8e57610d8e611a4c565b60200260200101516001600160a01b03166001600160a01b0316815260200190815260200160002060020154611288565b50610dc981611a62565b9050610c8a565b5060048390553360009081526007602052604090208054600290910154610df791906119d2565b95945050505050565b6040516323b872dd60e01b81523360048201523060248201523460448201526001600160a01b038216906323b872dd906064016020604051808303816000875af1158015610e52573d6000803e3d6000fd5b505050506040513d601f19601f82011682018060405250810190610e769190611a7b565b503460026000828254610e8991906119d2565b925050819055503460036000828254610ea291906119d2565b909155505050565b600554600080546040516341976e0960e01b81526001600160a01b039182166004820152919216906341976e0990602401602060405180830381865afa158015610ef8573d6000803e3d6000fd5b505050506040513d601f19601f82011682018060405250810190610f1c91906119ea565b6005546001546040516341976e0960e01b81526001600160a01b0391821660048201529293506000929116906341976e0990602401602060405180830381865afa158015610f6e573d6000803e3d6000fd5b505050506040513d601f19601f82011682018060405250810190610f9291906119ea565b6000549091506001600160a01b03908116908516036110cc5733600081815260066020908152604091829020825160608101845281548152600182015492810192909252600201549181019190915290610fec9043611185565b602082015280516000906103e8906102ee908590879061100d908a906119bb565b6110179190611a03565b6110219190611a38565b61102b9190611a03565b6110359190611a38565b9050816020015181101561107f5760405162461bcd60e51b81526020600482015260116024820152702bb4b23a34323930bb901d1022b93937b960791b6044820152606401610413565b604051339086156108fc029087906000818181858888f193505050501580156110ac573d6000803e3d6000fd5b5084600260008282546110bf91906119bb565b9091555061117f92505050565b6001546001600160a01b039081169085160361117f576001546000906110fa906001600160a01b0316610b2b565b905083811161113d5760405162461bcd60e51b815260206004820152600f60248201526e2bb4ba34323930bb9d1022b93937b960891b6044820152606401610413565b600154611154906001600160a01b03163386611258565b336000908152600760205260408120819055600380548692906111789084906119bb565b9091555050505b50505050565b6001600160a01b0382166000908152600660209081526040808320815160608101835281548152600182015493810193909352600201549082018190526111cc90846119bb565b92506111dc8160200151846112cd565b602090910181905290505b92915050565b6040516001600160a01b038085166024830152831660448201526064810182905261117f9085906323b872dd60e01b906084015b60408051601f198184030181529190526020810180516001600160e01b03166001600160e01b031990931692909217909152611358565b6040516001600160a01b0383166024820152604481018290526103c990849063a9059cbb60e01b90606401611221565b6108a5828260405160240161129e929190611af5565b60408051601f198184030181529190526020810180516001600160e01b03166309710a9d60e41b17905261142a565b6000806112dc611c2084611a38565b905060006112ec611c2085611b17565b905060008083116112fd578561130f565b61130f8666038d7ea4c680008561144b565b9050600082611c2061132a8466038d7ea4c68000600161144b565b6113349190611a38565b61133e9190611a03565b9050600061134c82846119d2565b98975050505050505050565b60006113ad826040518060400160405280602081526020017f5361666545524332303a206c6f772d6c6576656c2063616c6c206661696c6564815250856001600160a01b031661148b9092919063ffffffff16565b8051909150156103c957808060200190518101906113cb9190611a7b565b6103c95760405162461bcd60e51b815260206004820152602a60248201527f5361666545524332303a204552433230206f7065726174696f6e20646964206e6044820152691bdd081cdd58d8d9595960b21b6064820152608401610413565b80516a636f6e736f6c652e6c6f67602083016000808483855afa5050505050565b600061148361147d611477611460600161149a565b61147287670de0b6b3a76400006114b8565b6114f9565b8461152d565b85611589565b949350505050565b606061148384846000856115f4565b6000677fffffffffffffff8211156114b157600080fd5b5060401b90565b6000816000036114c757600080fd5b60006114d384846116cf565b905060016001607f1b036001600160801b03821611156114f257600080fd5b9392505050565b6000600f83810b9083900b0160016001607f1b03198112801590611524575060016001607f1b038113155b6114f257600080fd5b6000611539600161149a565b90505b81156111e75761154d600283611b17565b6001036115725761155e8184611834565b905061156b6001836119bb565b915061153c565b61157c8384611834565b925061156b600283611a38565b60008160000361159b575060006111e7565b600083600f0b12156115ac57600080fd5b600f83900b6001600160801b038316810260401c90608084901c026001600160c01b038111156115db57600080fd5b60401b81198111156115ec57600080fd5b019392505050565b6060824710156116555760405162461bcd60e51b815260206004820152602660248201527f416464726573733a20696e73756666696369656e742062616c616e636520666f6044820152651c8818d85b1b60d21b6064820152608401610413565b600080866001600160a01b031685876040516116719190611b2b565b60006040518083038185875af1925050503d80600081146116ae576040519150601f19603f3d011682016040523d82523d6000602084013e6116b3565b606091505b50915091506116c48783838761186a565b979650505050505050565b6000816000036116de57600080fd5b60006001600160c01b0384116117095782604085901b8161170157611701611a22565b049050611820565b60c084811c6401000000008110611722576020918201911c5b620100008110611734576010918201911c5b6101008110611745576008918201911c5b60108110611755576004918201911c5b60048110611765576002918201911c5b60028110611774576001820191505b60bf820360018603901c6001018260ff0387901b8161179557611795611a22565b0492506001600160801b038311156117ac57600080fd5b608085901c83026001600160801b038616840260c088901c604089901b828110156117d8576001820391505b608084901b929003828110156117ef576001820391505b829003608084901c821461180557611805611b47565b88818161181457611814611a22565b04870196505050505050505b6001600160801b038111156114f257600080fd5b6000600f83810b9083900b0260401d60016001607f1b03198112801590611524575060016001607f1b038113156114f257600080fd5b606083156118d95782516000036118d2576001600160a01b0385163b6118d25760405162461bcd60e51b815260206004820152601d60248201527f416464726573733a2063616c6c20746f206e6f6e2d636f6e74726163740000006044820152606401610413565b5081611483565b61148383838151156118ee5781518083602001fd5b8060405162461bcd60e51b81526004016104139190611b5d565b80356001600160a01b038116811461191f57600080fd5b919050565b6000806040838503121561193757600080fd5b61194083611908565b946020939093013593505050565b60008060006060848603121561196357600080fd5b61196c84611908565b925061197a60208501611908565b9150604084013590509250925092565b60006020828403121561199c57600080fd5b6114f282611908565b634e487b7160e01b600052601160045260246000fd5b6000828210156119cd576119cd6119a5565b500390565b600082198211156119e5576119e56119a5565b500190565b6000602082840312156119fc57600080fd5b5051919050565b6000816000190483118215151615611a1d57611a1d6119a5565b500290565b634e487b7160e01b600052601260045260246000fd5b600082611a4757611a47611a22565b500490565b634e487b7160e01b600052603260045260246000fd5b600060018201611a7457611a746119a5565b5060010190565b600060208284031215611a8d57600080fd5b815180151581146114f257600080fd5b60005b83811015611ab8578181015183820152602001611aa0565b8381111561117f5750506000910152565b60008151808452611ae1816020860160208601611a9d565b601f01601f19169290920160200192915050565b604081526000611b086040830185611ac9565b90508260208301529392505050565b600082611b2657611b26611a22565b500690565b60008251611b3d818460208701611a9d565b9190910192915050565b634e487b7160e01b600052600160045260246000fd5b6020815260006114f26020830184611ac956fea264697066735822122043a8e231b27d4e2564ec5e3244f0b8b87a75bba8d0c6a7c7e580ca4952652ee264736f6c634300080d0033",
    "linkReferences": {}
  },
  "methodIdentifiers": {
    "borrow(address,uint256)": "4b8a3529",
    "borrowers(address)": "bf5d50c4",
    "deposit(address,uint256)": "47e7ef24",
    "depositors(address)": "eed75f6d",
    "getAccruedSupplyAmount(address)": "53415e44",
    "initializeLendingProtocol(address)": "8f1e9779",
    "liquidate(address,address,uint256)": "26c01303",
    "oracle()": "7dc0d1d0",
    "preFee()": "11e70785",
    "repay(address,uint256)": "22867d78",
    "token0()": "0dfe1681",
    "token1()": "d21220a7",
    "totalToken0()": "d7158cd4",
    "totalToken1()": "80abfda8",
    "withdraw(address,uint256)": "f3fef3a3"
  },
  "id": 14
}