{
  "abi": [
    {
      "inputs": [
        {
          "internalType": "contract IPriceOracle",
          "name": "aOracle",
          "type": "address"
        },
        {
          "internalType": "address",
          "name": "aToken",
          "type": "address"
        }
      ],
      "stateMutability": "nonpayable",
      "type": "constructor"
    },
    {
      "inputs": [
        {
          "internalType": "address",
          "name": "aToken",
          "type": "address"
        },
        {
          "internalType": "uint256",
          "name": "aAmount",
          "type": "uint256"
        }
      ],
      "name": "borrow",
      "outputs": [],
      "stateMutability": "nonpayable",
      "type": "function"
    },
    {
      "inputs": [
        {
          "internalType": "address",
          "name": "",
          "type": "address"
        }
      ],
      "name": "borrowers",
      "outputs": [
        {
          "internalType": "uint256",
          "name": "sCollAmount",
          "type": "uint256"
        },
        {
          "internalType": "uint256",
          "name": "sThreshold",
          "type": "uint256"
        },
        {
          "internalType": "uint256",
          "name": "sBorrowedAmount",
          "type": "uint256"
        },
        {
          "internalType": "uint256",
          "name": "sBlockNum",
          "type": "uint256"
        }
      ],
      "stateMutability": "view",
      "type": "function"
    },
    {
      "inputs": [
        {
          "internalType": "address",
          "name": "aToken",
          "type": "address"
        },
        {
          "internalType": "uint256",
          "name": "aAmount",
          "type": "uint256"
        }
      ],
      "name": "deposit",
      "outputs": [],
      "stateMutability": "payable",
      "type": "function"
    },
    {
      "inputs": [
        {
          "internalType": "address",
          "name": "",
          "type": "address"
        }
      ],
      "name": "depositors",
      "outputs": [
        {
          "internalType": "uint256",
          "name": "sStakingAmount",
          "type": "uint256"
        },
        {
          "internalType": "uint256",
          "name": "sPreFee",
          "type": "uint256"
        },
        {
          "internalType": "uint256",
          "name": "sProfit",
          "type": "uint256"
        }
      ],
      "stateMutability": "view",
      "type": "function"
    },
    {
      "inputs": [
        {
          "internalType": "address",
          "name": "aToken",
          "type": "address"
        }
      ],
      "name": "getAccruedSupplyAmount",
      "outputs": [
        {
          "internalType": "uint256",
          "name": "",
          "type": "uint256"
        }
      ],
      "stateMutability": "nonpayable",
      "type": "function"
    },
    {
      "inputs": [
        {
          "internalType": "address",
          "name": "aToken",
          "type": "address"
        }
      ],
      "name": "initializeLendingProtocol",
      "outputs": [],
      "stateMutability": "payable",
      "type": "function"
    },
    {
      "inputs": [
        {
          "internalType": "address",
          "name": "aUser",
          "type": "address"
        },
        {
          "internalType": "address",
          "name": "aTokenAddress",
          "type": "address"
        },
        {
          "internalType": "uint256",
          "name": "aAmount",
          "type": "uint256"
        }
      ],
      "name": "liquidate",
      "outputs": [],
      "stateMutability": "payable",
      "type": "function"
    },
    {
      "inputs": [],
      "name": "oracle",
      "outputs": [
        {
          "internalType": "contract IPriceOracle",
          "name": "",
          "type": "address"
        }
      ],
      "stateMutability": "view",
      "type": "function"
    },
    {
      "inputs": [],
      "name": "preFee",
      "outputs": [
        {
          "internalType": "uint256",
          "name": "",
          "type": "uint256"
        }
      ],
      "stateMutability": "view",
      "type": "function"
    },
    {
      "inputs": [
        {
          "internalType": "address",
          "name": "aToken",
          "type": "address"
        },
        {
          "internalType": "uint256",
          "name": "aAmount",
          "type": "uint256"
        }
      ],
      "name": "repay",
      "outputs": [],
      "stateMutability": "nonpayable",
      "type": "function"
    },
    {
      "inputs": [],
      "name": "token0",
      "outputs": [
        {
          "internalType": "address",
          "name": "",
          "type": "address"
        }
      ],
      "stateMutability": "view",
      "type": "function"
    },
    {
      "inputs": [],
      "name": "token1",
      "outputs": [
        {
          "internalType": "address",
          "name": "",
          "type": "address"
        }
      ],
      "stateMutability": "view",
      "type": "function"
    },
    {
      "inputs": [],
      "name": "totalToken0",
      "outputs": [
        {
          "internalType": "uint256",
          "name": "",
          "type": "uint256"
        }
      ],
      "stateMutability": "view",
      "type": "function"
    },
    {
      "inputs": [],
      "name": "totalToken1",
      "outputs": [
        {
          "internalType": "uint256",
          "name": "",
          "type": "uint256"
        }
      ],
      "stateMutability": "view",
      "type": "function"
    },
    {
      "inputs": [
        {
          "internalType": "address",
          "name": "aToken",
          "type": "address"
        },
        {
          "internalType": "uint256",
          "name": "aAmount",
          "type": "uint256"
        }
      ],
      "name": "withdraw",
      "outputs": [],
      "stateMutability": "payable",
      "type": "function"
    }
  ],
  "bytecode": {
    "object": "0x60806040523480156200001157600080fd5b50604051620019173803806200191783398101604081905262000034916200008b565b600080546001600160a01b0319908116909155600180546001600160a01b0393841690831617905560058054939092169216919091179055620000ca565b6001600160a01b03811681146200008857600080fd5b50565b600080604083850312156200009f57600080fd5b8251620000ac8162000072565b6020840151909250620000bf8162000072565b809150509250929050565b61183d80620000da6000396000f3fe6080604052600436106100e85760003560e01c80637dc0d1d01161008a578063d21220a711610059578063d21220a714610281578063d7158cd4146102a1578063eed75f6d146102b7578063f3fef3a31461030e57600080fd5b80637dc0d1d0146101d657806380abfda8146101f65780638f1e97791461020c578063bf5d50c41461021f57600080fd5b806326c01303116100c657806326c013031461017057806347e7ef24146101835780634b8a35291461019657806353415e44146101b657600080fd5b80630dfe1681146100ed57806311e707851461012a57806322867d781461014e575b600080fd5b3480156100f957600080fd5b5060005461010d906001600160a01b031681565b6040516001600160a01b0390911681526020015b60405180910390f35b34801561013657600080fd5b5061014060045481565b604051908152602001610121565b34801561015a57600080fd5b5061016e6101693660046115e6565b610321565b005b61016e61017e366004611610565b610408565b61016e6101913660046115e6565b6106d9565b3480156101a257600080fd5b5061016e6101b13660046115e6565b6108ad565b3480156101c257600080fd5b506101406101d136600461164c565b610b41565b3480156101e257600080fd5b5060055461010d906001600160a01b031681565b34801561020257600080fd5b5061014060035481565b61016e61021a36600461164c565b610e16565b34801561022b57600080fd5b5061026161023a36600461164c565b60066020526000908152604090208054600182015460028301546003909301549192909184565b604080519485526020850193909352918301526060820152608001610121565b34801561028d57600080fd5b5060015461010d906001600160a01b031681565b3480156102ad57600080fd5b5061014060025481565b3480156102c357600080fd5b506102f36102d236600461164c565b60076020526000908152604090208054600182015460029092015490919083565b60408051938452602084019290925290820152606001610121565b61016e61031c3660046115e6565b610ec0565b3360008181526006602090815260409182902082516080810184528154815260018201549281019290925260028101549282019290925260039091015460608201529061036e90436111a7565b60408201819052820361038e5760006040820181905260608201526103a4565b81816040018181516103a09190611684565b9052505b336000908152600660209081526040808320845181559184015160018301558301516002820155606083015160039182015580548492906103e690849061169b565b9091555050600154610403906001600160a01b031633308561121b565b505050565b600554600080546040516341976e0960e01b81526001600160a01b039182166004820152919216906341976e0990602401602060405180830381865afa158015610456573d6000803e3d6000fd5b505050506040513d601f19601f8201168201806040525081019061047a91906116b3565b6005546001546040516341976e0960e01b81526001600160a01b0391821660048201529293506000929116906341976e0990602401602060405180830381865afa1580156104cc573d6000803e3d6000fd5b505050506040513d601f19601f820116820180604052508101906104f091906116b3565b6001600160a01b038616600090815260066020908152604080832081516080810183528154815260018201549381019390935260028101549183018290526003015460608301529293509184906105489085906116cc565b61055291906116eb565b82516103e890610565906102ee906116cc565b61056f91906116eb565b61057991906116eb565b9050600181106105c55760405162461bcd60e51b8152602060048201526012602482015271098d2e2ead2c8c2e8ca40744090cac2d8e8d60731b60448201526064015b60405180910390fd5b6103e8826040015160fa6105d991906116cc565b6105e391906116eb565b8511156106245760405162461bcd60e51b815260206004820152600f60248201526e4c6971756964617465203a2032352560881b60448201526064016105bc565b60008461063185886116cc565b61063b91906116eb565b9050858360400181815161064f9190611684565b905250825181908490610663908390611684565b9052506001600160a01b038816600090815260066020908152604080832086518155918601516001830155808601516002830155606086015160039092019190915551339183156108fc02918491818181858888f193505050501580156106ce573d6000803e3d6000fd5b505050505050505050565b6000546001600160a01b038381169116148061070257506001546001600160a01b038381169116145b6107405760405162461bcd60e51b815260206004820152600f60248201526e2232b837b9b4ba101d1022b93937b960891b60448201526064016105bc565b6000546001600160a01b03908116908316036107fe573481146107bb5760405162461bcd60e51b815260206004820152602d60248201527f4445504f5349543a20446f6573206e6f74206d617463682061416d6f756e742060448201526c616e64206d73672e76616c756560981b60648201526084016105bc565b33600090815260066020526040812080548392906107da90849061169b565b9250508190555080600260008282546107f3919061169b565b909155506108a99050565b6001546001600160a01b03908116908316036108a95760015461082c906001600160a01b031633308461121b565b336000908152600760205260408120805483929061084b90849061169b565b90915550506009805460018101825560009182527f6e1540171b6c0c960b71a7020d9f60077f6af931a8bbf590da0223dacf75c7af0180546001600160a01b03191633179055600380548392906108a390849061169b565b90915550505b5050565b336000908152600660209081526040808320815160808101835281548152600182015493810193909352600281015483830152600301546060830152600554835491516341976e0960e01b81526001600160a01b0392831660048201529293929116906341976e0990602401602060405180830381865afa158015610936573d6000803e3d6000fd5b505050506040513d601f19601f8201168201806040525081019061095a91906116b3565b6005546001546040516341976e0960e01b81526001600160a01b0391821660048201529293506000929116906341976e0990602401602060405180830381865afa1580156109ac573d6000803e3d6000fd5b505050506040513d601f19601f820116820180604052508101906109d091906116b3565b9050600060028385600001516109e691906116cc565b6109f091906116eb565b90506109fc33436111a7565b60408501819052610a0d908661169b565b610a1790836116cc565b811015610a715760405162461bcd60e51b815260206004820152602260248201527f426f72726f773a20616d6f756e742069732067726561746572207468616e206c6044820152613a3b60f11b60648201526084016105bc565b8360400151600003610ac657600880546001810182556000919091527ff3f7a9fe364faab93b216da50a3214154f22a0a2b415b23a84c8169e8b636ee30180546001600160a01b031916331790554360608501525b8484604001818151610ad8919061169b565b90525033600090815260066020908152604080832087518155918701516001830155860151600282015560608601516003918201558054879290610b1d908490611684565b9091555050600154610b39906001600160a01b03163387611286565b505050505050565b600880546040805160208084028201810190925282815260009384938493830182828015610b9857602002820191906000526020600020905b81546001600160a01b03168152600190910190602001808311610b7a575b5050505050905060006009805480602002602001604051908101604052809291908181526020018280548015610bf757602002820191906000526020600020905b81546001600160a01b03168152600190910190602001808311610bd9575b5050505050905060005b8251811015610c9c576000610c2f848381518110610c2157610c2161170d565b6020026020010151436111a7565b905060066000858481518110610c4757610c4761170d565b60200260200101516001600160a01b03166001600160a01b031681526020019081526020016000206002015481610c7e9190611684565b610c88908661169b565b94505080610c9590611723565b9050610c01565b5060005b8151811015610de657600060035460076000858581518110610cc457610cc461170d565b60200260200101516001600160a01b03166001600160a01b031681526020019081526020016000206000015460045487610cfe9190611684565b610d0891906116cc565b610d1291906116eb565b90508060076000858581518110610d2b57610d2b61170d565b60200260200101516001600160a01b03166001600160a01b031681526020019081526020016000206002016000828254610d65919061169b565b92505081905550610dd5604051806040016040528060068152602001651c1c9bd99a5d60d21b81525060076000868681518110610da457610da461170d565b60200260200101516001600160a01b03166001600160a01b03168152602001908152602001600020600201546112b6565b50610ddf81611723565b9050610ca0565b5060048390553360009081526007602052604090208054600290910154610e0d919061169b565b95945050505050565b6040516323b872dd60e01b81523360048201523060248201523460448201526001600160a01b038216906323b872dd906064016020604051808303816000875af1158015610e68573d6000803e3d6000fd5b505050506040513d601f19601f82011682018060405250810190610e8c919061173c565b503460026000828254610e9f919061169b565b925050819055503460036000828254610eb8919061169b565b909155505050565b600554600080546040516341976e0960e01b81526001600160a01b039182166004820152919216906341976e0990602401602060405180830381865afa158015610f0e573d6000803e3d6000fd5b505050506040513d601f19601f82011682018060405250810190610f3291906116b3565b6005546001546040516341976e0960e01b81526001600160a01b0391821660048201529293506000929116906341976e0990602401602060405180830381865afa158015610f84573d6000803e3d6000fd5b505050506040513d601f19601f82011682018060405250810190610fa891906116b3565b6000549091506001600160a01b03908116908516036110ee573360008181526006602090815260409182902082516080810184528154815260018201549281019290925260028101549282019290925260039091015460608201529061100e90436111a7565b604082015280516000906103e8906102ee908590879061102f908a90611684565b61103991906116cc565b61104391906116eb565b61104d91906116cc565b61105791906116eb565b905081604001518110156110a15760405162461bcd60e51b81526020600482015260116024820152702bb4b23a34323930bb901d1022b93937b960791b60448201526064016105bc565b604051339086156108fc029087906000818181858888f193505050501580156110ce573d6000803e3d6000fd5b5084600260008282546110e19190611684565b909155506111a192505050565b6001546001600160a01b03908116908516036111a15760015460009061111c906001600160a01b0316610b41565b905083811161115f5760405162461bcd60e51b815260206004820152600f60248201526e2bb4ba34323930bb9d1022b93937b960891b60448201526064016105bc565b600154611176906001600160a01b03163386611286565b3360009081526007602052604081208190556003805486929061119a908490611684565b9091555050505b50505050565b6001600160a01b038216600090815260066020908152604080832081516080810183528154815260018201549381019390935260028101549183019190915260030154606082018190526111fb9084611684565b925061120b8160400151846112fb565b6040909101819052905092915050565b6040516001600160a01b03808516602483015283166044820152606481018290526111a19085906323b872dd60e01b906084015b60408051601f198184030181529190526020810180516001600160e01b03166001600160e01b031990931692909217909152611347565b6040516001600160a01b03831660248201526044810182905261040390849063a9059cbb60e01b9060640161124f565b6108a982826040516024016112cc9291906117b6565b60408051601f198184030181529190526020810180516001600160e01b03166309710a9d60e41b179052611419565b600082815b8381101561133f5761131764174876e800836116eb565b6113239061363a6116cc565b61132d908361169b565b915061133881611723565b9050611300565b509392505050565b600061139c826040518060400160405280602081526020017f5361666545524332303a206c6f772d6c6576656c2063616c6c206661696c6564815250856001600160a01b031661143a9092919063ffffffff16565b80519091501561040357808060200190518101906113ba919061173c565b6104035760405162461bcd60e51b815260206004820152602a60248201527f5361666545524332303a204552433230206f7065726174696f6e20646964206e6044820152691bdd081cdd58d8d9595960b21b60648201526084016105bc565b80516a636f6e736f6c652e6c6f67602083016000808483855afa5050505050565b60606114498484600085611451565b949350505050565b6060824710156114b25760405162461bcd60e51b815260206004820152602660248201527f416464726573733a20696e73756666696369656e742062616c616e636520666f6044820152651c8818d85b1b60d21b60648201526084016105bc565b600080866001600160a01b031685876040516114ce91906117d8565b60006040518083038185875af1925050503d806000811461150b576040519150601f19603f3d011682016040523d82523d6000602084013e611510565b606091505b50915091506115218783838761152c565b979650505050505050565b6060831561159b578251600003611594576001600160a01b0385163b6115945760405162461bcd60e51b815260206004820152601d60248201527f416464726573733a2063616c6c20746f206e6f6e2d636f6e747261637400000060448201526064016105bc565b5081611449565b61144983838151156115b05781518083602001fd5b8060405162461bcd60e51b81526004016105bc91906117f4565b80356001600160a01b03811681146115e157600080fd5b919050565b600080604083850312156115f957600080fd5b611602836115ca565b946020939093013593505050565b60008060006060848603121561162557600080fd5b61162e846115ca565b925061163c602085016115ca565b9150604084013590509250925092565b60006020828403121561165e57600080fd5b611667826115ca565b9392505050565b634e487b7160e01b600052601160045260246000fd5b6000828210156116965761169661166e565b500390565b600082198211156116ae576116ae61166e565b500190565b6000602082840312156116c557600080fd5b5051919050565b60008160001904831182151516156116e6576116e661166e565b500290565b60008261170857634e487b7160e01b600052601260045260246000fd5b500490565b634e487b7160e01b600052603260045260246000fd5b6000600182016117355761173561166e565b5060010190565b60006020828403121561174e57600080fd5b8151801515811461166757600080fd5b60005b83811015611779578181015183820152602001611761565b838111156111a15750506000910152565b600081518084526117a281602086016020860161175e565b601f01601f19169290920160200192915050565b6040815260006117c9604083018561178a565b90508260208301529392505050565b600082516117ea81846020870161175e565b9190910192915050565b602081526000611667602083018461178a56fea26469706673582212200529575ed47b48932dcba00e16b67323bbeecb256e51baf87880a6cb436f87de64736f6c634300080d0033",
    "linkReferences": {}
  },
  "methodIdentifiers": {
    "borrow(address,uint256)": "4b8a3529",
    "borrowers(address)": "bf5d50c4",
    "deposit(address,uint256)": "47e7ef24",
    "depositors(address)": "eed75f6d",
    "getAccruedSupplyAmount(address)": "53415e44",
    "initializeLendingProtocol(address)": "8f1e9779",
    "liquidate(address,address,uint256)": "26c01303",
    "oracle()": "7dc0d1d0",
    "preFee()": "11e70785",
    "repay(address,uint256)": "22867d78",
    "token0()": "0dfe1681",
    "token1()": "d21220a7",
    "totalToken0()": "d7158cd4",
    "totalToken1()": "80abfda8",
    "withdraw(address,uint256)": "f3fef3a3"
  },
  "id": 14
}